{
  "contractName": "AirCraftPart",
  "abi": [
    {
      "inputs": [],
      "stateMutability": "nonpayable",
      "type": "constructor"
    },
    {
      "anonymous": false,
      "inputs": [
        {
          "indexed": true,
          "internalType": "address",
          "name": "owner",
          "type": "address"
        },
        {
          "indexed": true,
          "internalType": "address",
          "name": "approved",
          "type": "address"
        },
        {
          "indexed": true,
          "internalType": "uint256",
          "name": "tokenId",
          "type": "uint256"
        }
      ],
      "name": "Approval",
      "type": "event"
    },
    {
      "anonymous": false,
      "inputs": [
        {
          "indexed": true,
          "internalType": "address",
          "name": "owner",
          "type": "address"
        },
        {
          "indexed": true,
          "internalType": "address",
          "name": "operator",
          "type": "address"
        },
        {
          "indexed": false,
          "internalType": "bool",
          "name": "approved",
          "type": "bool"
        }
      ],
      "name": "ApprovalForAll",
      "type": "event"
    },
    {
      "anonymous": false,
      "inputs": [
        {
          "indexed": true,
          "internalType": "address",
          "name": "from",
          "type": "address"
        },
        {
          "indexed": true,
          "internalType": "address",
          "name": "to",
          "type": "address"
        },
        {
          "indexed": true,
          "internalType": "uint256",
          "name": "tokenId",
          "type": "uint256"
        }
      ],
      "name": "Transfer",
      "type": "event"
    },
    {
      "inputs": [
        {
          "internalType": "address",
          "name": "to",
          "type": "address"
        },
        {
          "internalType": "uint256",
          "name": "tokenId",
          "type": "uint256"
        }
      ],
      "name": "approve",
      "outputs": [],
      "stateMutability": "nonpayable",
      "type": "function"
    },
    {
      "inputs": [
        {
          "internalType": "address",
          "name": "owner",
          "type": "address"
        }
      ],
      "name": "balanceOf",
      "outputs": [
        {
          "internalType": "uint256",
          "name": "",
          "type": "uint256"
        }
      ],
      "stateMutability": "view",
      "type": "function",
      "constant": true
    },
    {
      "inputs": [
        {
          "internalType": "uint256",
          "name": "tokenId",
          "type": "uint256"
        }
      ],
      "name": "getApproved",
      "outputs": [
        {
          "internalType": "address",
          "name": "",
          "type": "address"
        }
      ],
      "stateMutability": "view",
      "type": "function",
      "constant": true
    },
    {
      "inputs": [
        {
          "internalType": "address",
          "name": "owner",
          "type": "address"
        },
        {
          "internalType": "address",
          "name": "operator",
          "type": "address"
        }
      ],
      "name": "isApprovedForAll",
      "outputs": [
        {
          "internalType": "bool",
          "name": "",
          "type": "bool"
        }
      ],
      "stateMutability": "view",
      "type": "function",
      "constant": true
    },
    {
      "inputs": [],
      "name": "name",
      "outputs": [
        {
          "internalType": "string",
          "name": "",
          "type": "string"
        }
      ],
      "stateMutability": "view",
      "type": "function",
      "constant": true
    },
    {
      "inputs": [
        {
          "internalType": "uint256",
          "name": "tokenId",
          "type": "uint256"
        }
      ],
      "name": "ownerOf",
      "outputs": [
        {
          "internalType": "address",
          "name": "",
          "type": "address"
        }
      ],
      "stateMutability": "view",
      "type": "function",
      "constant": true
    },
    {
      "inputs": [
        {
          "internalType": "address",
          "name": "from",
          "type": "address"
        },
        {
          "internalType": "address",
          "name": "to",
          "type": "address"
        },
        {
          "internalType": "uint256",
          "name": "tokenId",
          "type": "uint256"
        }
      ],
      "name": "safeTransferFrom",
      "outputs": [],
      "stateMutability": "nonpayable",
      "type": "function"
    },
    {
      "inputs": [
        {
          "internalType": "address",
          "name": "from",
          "type": "address"
        },
        {
          "internalType": "address",
          "name": "to",
          "type": "address"
        },
        {
          "internalType": "uint256",
          "name": "tokenId",
          "type": "uint256"
        },
        {
          "internalType": "bytes",
          "name": "_data",
          "type": "bytes"
        }
      ],
      "name": "safeTransferFrom",
      "outputs": [],
      "stateMutability": "nonpayable",
      "type": "function"
    },
    {
      "inputs": [
        {
          "internalType": "address",
          "name": "operator",
          "type": "address"
        },
        {
          "internalType": "bool",
          "name": "approved",
          "type": "bool"
        }
      ],
      "name": "setApprovalForAll",
      "outputs": [],
      "stateMutability": "nonpayable",
      "type": "function"
    },
    {
      "inputs": [],
      "name": "symbol",
      "outputs": [
        {
          "internalType": "string",
          "name": "",
          "type": "string"
        }
      ],
      "stateMutability": "view",
      "type": "function",
      "constant": true
    },
    {
      "inputs": [
        {
          "internalType": "uint256",
          "name": "index",
          "type": "uint256"
        }
      ],
      "name": "tokenByIndex",
      "outputs": [
        {
          "internalType": "uint256",
          "name": "",
          "type": "uint256"
        }
      ],
      "stateMutability": "view",
      "type": "function",
      "constant": true
    },
    {
      "inputs": [
        {
          "internalType": "address",
          "name": "owner",
          "type": "address"
        },
        {
          "internalType": "uint256",
          "name": "index",
          "type": "uint256"
        }
      ],
      "name": "tokenOfOwnerByIndex",
      "outputs": [
        {
          "internalType": "uint256",
          "name": "",
          "type": "uint256"
        }
      ],
      "stateMutability": "view",
      "type": "function",
      "constant": true
    },
    {
      "inputs": [],
      "name": "totalSupply",
      "outputs": [
        {
          "internalType": "uint256",
          "name": "",
          "type": "uint256"
        }
      ],
      "stateMutability": "view",
      "type": "function",
      "constant": true
    },
    {
      "inputs": [
        {
          "internalType": "address",
          "name": "from",
          "type": "address"
        },
        {
          "internalType": "address",
          "name": "to",
          "type": "address"
        },
        {
          "internalType": "uint256",
          "name": "tokenId",
          "type": "uint256"
        }
      ],
      "name": "transferFrom",
      "outputs": [],
      "stateMutability": "nonpayable",
      "type": "function"
    },
    {
      "inputs": [
        {
          "internalType": "string",
          "name": "partURI",
          "type": "string"
        }
      ],
      "name": "createAirCraftPart",
      "outputs": [],
      "stateMutability": "nonpayable",
      "type": "function"
    },
    {
      "inputs": [
        {
          "internalType": "uint256",
          "name": "partId",
          "type": "uint256"
        },
        {
          "internalType": "string",
          "name": "partURI",
          "type": "string"
        }
      ],
      "name": "updateCertificateList",
      "outputs": [],
      "stateMutability": "nonpayable",
      "type": "function"
    },
    {
      "inputs": [
        {
          "internalType": "uint256",
          "name": "partId",
          "type": "uint256"
        }
      ],
      "name": "getPartURI",
      "outputs": [
        {
          "internalType": "string",
          "name": "",
          "type": "string"
        }
      ],
      "stateMutability": "view",
      "type": "function",
      "constant": true
    },
    {
      "inputs": [
        {
          "internalType": "uint256",
          "name": "partId",
          "type": "uint256"
        }
      ],
      "name": "checkPartIdExist",
      "outputs": [
        {
          "internalType": "bool",
          "name": "",
          "type": "bool"
        }
      ],
      "stateMutability": "view",
      "type": "function",
      "constant": true
    },
    {
      "inputs": [
        {
          "internalType": "address",
          "name": "_owner",
          "type": "address"
        }
      ],
      "name": "getTokensOfOwner",
      "outputs": [
        {
          "internalType": "uint256[]",
          "name": "",
          "type": "uint256[]"
        }
      ],
      "stateMutability": "view",
      "type": "function",
      "constant": true
    },
    {
      "inputs": [],
      "name": "getAllTokenURIs",
      "outputs": [
        {
          "internalType": "string[]",
          "name": "",
          "type": "string[]"
        }
      ],
      "stateMutability": "view",
      "type": "function",
      "constant": true
    },
    {
      "inputs": [
        {
          "internalType": "uint256",
          "name": "partId",
          "type": "uint256"
        }
      ],
      "name": "validatePart",
      "outputs": [],
      "stateMutability": "nonpayable",
      "type": "function"
    },
    {
      "inputs": [
        {
          "internalType": "uint256",
          "name": "partId",
          "type": "uint256"
        }
      ],
      "name": "getValidation",
      "outputs": [
        {
          "internalType": "bool",
          "name": "",
          "type": "bool"
        }
      ],
      "stateMutability": "view",
      "type": "function",
      "constant": true
    },
    {
      "inputs": [
        {
          "internalType": "string",
          "name": "uri",
          "type": "string"
        },
        {
          "internalType": "string",
          "name": "keyShares",
          "type": "string"
        }
      ],
      "name": "addKeyShares",
      "outputs": [],
      "stateMutability": "nonpayable",
      "type": "function"
    },
    {
      "inputs": [
        {
          "internalType": "string",
          "name": "uri",
          "type": "string"
        }
      ],
      "name": "getKeyShares",
      "outputs": [
        {
          "internalType": "string",
          "name": "",
          "type": "string"
        }
      ],
      "stateMutability": "view",
      "type": "function",
      "constant": true
    },
    {
      "inputs": [],
      "name": "setPassword",
      "outputs": [],
      "stateMutability": "nonpayable",
      "type": "function"
    },
    {
      "inputs": [],
      "name": "getPassword",
      "outputs": [
        {
          "internalType": "bool",
          "name": "",
          "type": "bool"
        }
      ],
      "stateMutability": "view",
      "type": "function",
      "constant": true
    },
    {
      "inputs": [],
      "name": "getKeyList",
      "outputs": [
        {
          "internalType": "string",
          "name": "",
          "type": "string"
        }
      ],
      "stateMutability": "view",
      "type": "function",
      "constant": true
    },
    {
      "inputs": [
        {
          "internalType": "string",
          "name": "keyListURI",
          "type": "string"
        }
      ],
      "name": "updateKeyList",
      "outputs": [],
      "stateMutability": "nonpayable",
      "type": "function"
    },
    {
      "inputs": [
        {
          "internalType": "uint256",
          "name": "_tokenId",
          "type": "uint256"
        }
      ],
      "name": "tokenURI",
      "outputs": [
        {
          "internalType": "string",
          "name": "",
          "type": "string"
        }
      ],
      "stateMutability": "view",
      "type": "function",
      "constant": true
    },
    {
      "inputs": [
        {
          "internalType": "bytes4",
          "name": "_interfaceId",
          "type": "bytes4"
        }
      ],
      "name": "supportsInterface",
      "outputs": [
        {
          "internalType": "bool",
          "name": "",
          "type": "bool"
        }
      ],
      "stateMutability": "view",
      "type": "function",
      "constant": true
    }
  ],
  "bytecode": "0x60806040523480156200001157600080fd5b506040518060400160405280600c81526020017f41697243726166745061727400000000000000000000000000000000000000008152506040518060400160405280600481526020017f504152540000000000000000000000000000000000000000000000000000000081525081600090805190602001906200009692919062000190565b508060019080519060200190620000af92919062000190565b5050506001600c600073cd964d99c155369b3e4ae8ef2aa83ef55bceba9b73ffffffffffffffffffffffffffffffffffffffff1673ffffffffffffffffffffffffffffffffffffffff16815260200190815260200160002060006101000a81548160ff0219169083151502179055506001600c600073f0dd951142614da97ab59e66827477530f7a0a5073ffffffffffffffffffffffffffffffffffffffff1673ffffffffffffffffffffffffffffffffffffffff16815260200190815260200160002060006101000a81548160ff021916908315150217905550620002a5565b8280546200019e906200026f565b90600052602060002090601f016020900481019282620001c257600085556200020e565b82601f10620001dd57805160ff19168380011785556200020e565b828001600101855582156200020e579182015b828111156200020d578251825591602001919060010190620001f0565b5b5090506200021d919062000221565b5090565b5b808211156200023c57600081600090555060010162000222565b5090565b7f4e487b7100000000000000000000000000000000000000000000000000000000600052602260045260246000fd5b600060028204905060018216806200028857607f821691505b602082108114156200029f576200029e62000240565b5b50919050565b61429780620002b56000396000f3fe608060405234801561001057600080fd5b50600436106101da5760003560e01c80638392ae5c11610104578063b88d4fde116100a2578063e3084e5c11610071578063e3084e5c1461059f578063e985e9c5146105bb578063eab3c92d146105eb578063ff9d4a9714610609576101da565b8063b88d4fde14610505578063c87b56dd14610521578063cc8e239414610551578063ccf3e26e1461056f576101da565b80639d1b38ba116100de5780639d1b38ba14610493578063a22cb465146104c3578063aea89bf4146104df578063b5b87ff9146104e9576101da565b80638392ae5c1461042757806389fde7af1461045757806395d89b4114610475576101da565b806323b872dd1161017c5780634f6ccce71161014b5780634f6ccce7146103675780635de6dc55146103975780636352211e146103c757806370a08231146103f7576101da565b806323b872dd146102cf5780632f745c59146102eb57806341e65f0a1461031b57806342842e0e1461034b576101da565b8063095ea7b3116101b8578063095ea7b31461025d57806318160ddd1461027957806320e3ea47146102975780632362fc0e146102b3576101da565b806301ffc9a7146101df57806306fdde031461020f578063081812fc1461022d575b600080fd5b6101f960048036038101906101f49190612a0a565b610625565b6040516102069190612a52565b60405180910390f35b610217610637565b6040516102249190612b06565b60405180910390f35b61024760048036038101906102429190612b5e565b6106c9565b6040516102549190612bcc565b60405180910390f35b61027760048036038101906102729190612c13565b61074e565b005b610281610866565b60405161028e9190612c62565b60405180910390f35b6102b160048036038101906102ac9190612b5e565b610873565b005b6102cd60048036038101906102c89190612db2565b61092e565b005b6102e960048036038101906102e49190612dfb565b610985565b005b61030560048036038101906103009190612c13565b6109e5565b6040516103129190612c62565b60405180910390f35b61033560048036038101906103309190612b5e565b610a8a565b6040516103429190612a52565b60405180910390f35b61036560048036038101906103609190612dfb565b610a9c565b005b610381600480360381019061037c9190612b5e565b610abc565b60405161038e9190612c62565b60405180910390f35b6103b160048036038101906103ac9190612e4e565b610b2d565b6040516103be9190612f39565b60405180910390f35b6103e160048036038101906103dc9190612b5e565b610c37565b6040516103ee9190612bcc565b60405180910390f35b610411600480360381019061040c9190612e4e565b610ce9565b60405161041e9190612c62565b60405180910390f35b610441600480360381019061043c9190612b5e565b610da1565b60405161044e9190612a52565b60405180910390f35b61045f610dcb565b60405161046c9190613067565b60405180910390f35b61047d610fa2565b60405161048a9190612b06565b60405180910390f35b6104ad60048036038101906104a89190612db2565b611034565b6040516104ba9190612b06565b60405180910390f35b6104dd60048036038101906104d891906130b5565b611170565b005b6104e7611186565b005b61050360048036038101906104fe91906130f5565b6111e0565b005b61051f600480360381019061051a919061320e565b611217565b005b61053b60048036038101906105369190612b5e565b611279565b6040516105489190612b06565b60405180910390f35b61055961128b565b6040516105669190612a52565b60405180910390f35b61058960048036038101906105849190612b5e565b6112df565b6040516105969190612b06565b60405180910390f35b6105b960048036038101906105b49190613291565b6112f1565b005b6105d560048036038101906105d091906132ed565b611399565b6040516105e29190612a52565b60405180910390f35b6105f361142d565b6040516106009190612b06565b60405180910390f35b610623600480360381019061061e9190612db2565b6114fc565b005b600061063082611535565b9050919050565b6060600080546106469061335c565b80601f01602080910402602001604051908101604052809291908181526020018280546106729061335c565b80156106bf5780601f10610694576101008083540402835291602001916106bf565b820191906000526020600020905b8154815290600101906020018083116106a257829003601f168201915b5050505050905090565b60006106d4826115af565b610713576040517f08c379a000000000000000000000000000000000000000000000000000000000815260040161070a90613400565b60405180910390fd5b6004600083815260200190815260200160002060009054906101000a900473ffffffffffffffffffffffffffffffffffffffff169050919050565b600061075982610c37565b90508073ffffffffffffffffffffffffffffffffffffffff168373ffffffffffffffffffffffffffffffffffffffff1614156107ca576040517f08c379a00000000000000000000000000000000000000000000000000000000081526004016107c190613492565b60405180910390fd5b8073ffffffffffffffffffffffffffffffffffffffff166107e961161b565b73ffffffffffffffffffffffffffffffffffffffff16148061081857506108178161081261161b565b611399565b5b610857576040517f08c379a000000000000000000000000000000000000000000000000000000000815260040161084e90613524565b60405180910390fd5b6108618383611623565b505050565b6000600880549050905090565b600c60003373ffffffffffffffffffffffffffffffffffffffff1673ffffffffffffffffffffffffffffffffffffffff16815260200190815260200160002060009054906101000a900460ff166108ff576040517f08c379a00000000000000000000000000000000000000000000000000000000081526004016108f6906135b6565b60405180910390fd5b6001600d600083815260200190815260200160002060006101000a81548160ff02191690831515021790555050565b80600f60003373ffffffffffffffffffffffffffffffffffffffff1673ffffffffffffffffffffffffffffffffffffffff16815260200190815260200160002090805190602001906109819291906128fb565b5050565b61099661099061161b565b826116dc565b6109d5576040517f08c379a00000000000000000000000000000000000000000000000000000000081526004016109cc90613648565b60405180910390fd5b6109e08383836117ba565b505050565b60006109f083610ce9565b8210610a31576040517f08c379a0000000000000000000000000000000000000000000000000000000008152600401610a28906136da565b60405180910390fd5b600660008473ffffffffffffffffffffffffffffffffffffffff1673ffffffffffffffffffffffffffffffffffffffff168152602001908152602001600020600083815260200190815260200160002054905092915050565b6000610a95826115af565b9050919050565b610ab783838360405180602001604052806000815250611217565b505050565b6000610ac6610866565b8210610b07576040517f08c379a0000000000000000000000000000000000000000000000000000000008152600401610afe9061376c565b60405180910390fd5b60088281548110610b1b57610b1a61378c565b5b90600052602060002001549050919050565b60606000610b3a83610ce9565b90506000811415610b9757600067ffffffffffffffff811115610b6057610b5f612c87565b5b604051908082528060200260200182016040528015610b8e5781602001602082028036833780820191505090505b50915050610c32565b60008167ffffffffffffffff811115610bb357610bb2612c87565b5b604051908082528060200260200182016040528015610be15781602001602082028036833780820191505090505b50905060005b82811015610c2b57610bf985826109e5565b828281518110610c0c57610c0b61378c565b5b6020026020010181815250508080610c23906137ea565b915050610be7565b5080925050505b919050565b6000806002600084815260200190815260200160002060009054906101000a900473ffffffffffffffffffffffffffffffffffffffff169050600073ffffffffffffffffffffffffffffffffffffffff168173ffffffffffffffffffffffffffffffffffffffff161415610ce0576040517f08c379a0000000000000000000000000000000000000000000000000000000008152600401610cd7906138a5565b60405180910390fd5b80915050919050565b60008073ffffffffffffffffffffffffffffffffffffffff168273ffffffffffffffffffffffffffffffffffffffff161415610d5a576040517f08c379a0000000000000000000000000000000000000000000000000000000008152600401610d5190613937565b60405180910390fd5b600360008373ffffffffffffffffffffffffffffffffffffffff1673ffffffffffffffffffffffffffffffffffffffff168152602001908152602001600020549050919050565b6000600d600083815260200190815260200160002060009054906101000a900460ff169050919050565b6060600c60003373ffffffffffffffffffffffffffffffffffffffff1673ffffffffffffffffffffffffffffffffffffffff16815260200190815260200160002060009054906101000a900460ff16610e59576040517f08c379a0000000000000000000000000000000000000000000000000000000008152600401610e50906135b6565b60405180910390fd5b6000610e63610866565b90506000811415610ec557600067ffffffffffffffff811115610e8957610e88612c87565b5b604051908082528060200260200182016040528015610ebc57816020015b6060815260200190600190039081610ea75790505b50915050610f9f565b60008167ffffffffffffffff811115610ee157610ee0612c87565b5b604051908082528060200260200182016040528015610f1457816020015b6060815260200190600190039081610eff5790505b50905060005b82811015610f98576000610f2d82610abc565b905060001515600d600083815260200190815260200160002060009054906101000a900460ff1615151415610f8457610f6581611279565b838381518110610f7857610f7761378c565b5b60200260200101819052505b508080610f90906137ea565b915050610f1a565b5080925050505b90565b606060018054610fb19061335c565b80601f0160208091040260200160405190810160405280929190818152602001828054610fdd9061335c565b801561102a5780601f10610fff5761010080835404028352916020019161102a565b820191906000526020600020905b81548152906001019060200180831161100d57829003601f168201915b5050505050905090565b6060600c60003373ffffffffffffffffffffffffffffffffffffffff1673ffffffffffffffffffffffffffffffffffffffff16815260200190815260200160002060009054906101000a900460ff166110c2576040517f08c379a00000000000000000000000000000000000000000000000000000000081526004016110b9906135b6565b60405180910390fd5b6010826040516110d29190613993565b908152602001604051809103902080546110eb9061335c565b80601f01602080910402602001604051908101604052809291908181526020018280546111179061335c565b80156111645780601f1061113957610100808354040283529160200191611164565b820191906000526020600020905b81548152906001019060200180831161114757829003601f168201915b50505050509050919050565b61118261117b61161b565b8383611a16565b5050565b6001600e60003373ffffffffffffffffffffffffffffffffffffffff1673ffffffffffffffffffffffffffffffffffffffff16815260200190815260200160002060006101000a81548160ff021916908315150217905550565b806010836040516111f19190613993565b908152602001604051809103902090805190602001906112129291906128fb565b505050565b61122861122261161b565b836116dc565b611267576040517f08c379a000000000000000000000000000000000000000000000000000000000815260040161125e90613648565b60405180910390fd5b61127384848484611b83565b50505050565b606061128482611bdf565b9050919050565b6000600e60003373ffffffffffffffffffffffffffffffffffffffff1673ffffffffffffffffffffffffffffffffffffffff16815260200190815260200160002060009054906101000a900460ff16905090565b60606112ea82611279565b9050919050565b6112fb33836116dc565b61133a576040517f08c379a000000000000000000000000000000000000000000000000000000000815260040161133190613a1c565b60405180910390fd5b611343826115af565b611382576040517f08c379a000000000000000000000000000000000000000000000000000000000815260040161137990613aae565b60405180910390fd5b61138c8282611d31565b61139582611da5565b5050565b6000600560008473ffffffffffffffffffffffffffffffffffffffff1673ffffffffffffffffffffffffffffffffffffffff16815260200190815260200160002060008373ffffffffffffffffffffffffffffffffffffffff1673ffffffffffffffffffffffffffffffffffffffff16815260200190815260200160002060009054906101000a900460ff16905092915050565b6060600f60003373ffffffffffffffffffffffffffffffffffffffff1673ffffffffffffffffffffffffffffffffffffffff16815260200190815260200160002080546114799061335c565b80601f01602080910402602001604051908101604052809291908181526020018280546114a59061335c565b80156114f25780601f106114c7576101008083540402835291602001916114f2565b820191906000526020600020905b8154815290600101906020018083116114d557829003601f168201915b5050505050905090565b6000611508600b611dd4565b90506115143382611de2565b61151e8183611d31565b61152781611da5565b611531600b611fb0565b5050565b60007f780e9d63000000000000000000000000000000000000000000000000000000007bffffffffffffffffffffffffffffffffffffffffffffffffffffffff1916827bffffffffffffffffffffffffffffffffffffffffffffffffffffffff191614806115a857506115a782611fc6565b5b9050919050565b60008073ffffffffffffffffffffffffffffffffffffffff166002600084815260200190815260200160002060009054906101000a900473ffffffffffffffffffffffffffffffffffffffff1673ffffffffffffffffffffffffffffffffffffffff1614159050919050565b600033905090565b816004600083815260200190815260200160002060006101000a81548173ffffffffffffffffffffffffffffffffffffffff021916908373ffffffffffffffffffffffffffffffffffffffff160217905550808273ffffffffffffffffffffffffffffffffffffffff1661169683610c37565b73ffffffffffffffffffffffffffffffffffffffff167f8c5be1e5ebec7d5bd14f71427d1e84f3dd0314c0f7b2291e5b200ac8c7c3b92560405160405180910390a45050565b60006116e7826115af565b611726576040517f08c379a000000000000000000000000000000000000000000000000000000000815260040161171d90613b40565b60405180910390fd5b600061173183610c37565b90508073ffffffffffffffffffffffffffffffffffffffff168473ffffffffffffffffffffffffffffffffffffffff1614806117a057508373ffffffffffffffffffffffffffffffffffffffff16611788846106c9565b73ffffffffffffffffffffffffffffffffffffffff16145b806117b157506117b08185611399565b5b91505092915050565b8273ffffffffffffffffffffffffffffffffffffffff166117da82610c37565b73ffffffffffffffffffffffffffffffffffffffff1614611830576040517f08c379a000000000000000000000000000000000000000000000000000000000815260040161182790613bd2565b60405180910390fd5b600073ffffffffffffffffffffffffffffffffffffffff168273ffffffffffffffffffffffffffffffffffffffff1614156118a0576040517f08c379a000000000000000000000000000000000000000000000000000000000815260040161189790613c64565b60405180910390fd5b6118ab8383836120a8565b6118b6600082611623565b6001600360008573ffffffffffffffffffffffffffffffffffffffff1673ffffffffffffffffffffffffffffffffffffffff16815260200190815260200160002060008282546119069190613c84565b925050819055506001600360008473ffffffffffffffffffffffffffffffffffffffff1673ffffffffffffffffffffffffffffffffffffffff168152602001908152602001600020600082825461195d9190613cb8565b92505081905550816002600083815260200190815260200160002060006101000a81548173ffffffffffffffffffffffffffffffffffffffff021916908373ffffffffffffffffffffffffffffffffffffffff160217905550808273ffffffffffffffffffffffffffffffffffffffff168473ffffffffffffffffffffffffffffffffffffffff167fddf252ad1be2c89b69c2b068fc378daa952ba7f163c4a11628f55a4df523b3ef60405160405180910390a4505050565b8173ffffffffffffffffffffffffffffffffffffffff168373ffffffffffffffffffffffffffffffffffffffff161415611a85576040517f08c379a0000000000000000000000000000000000000000000000000000000008152600401611a7c90613d5a565b60405180910390fd5b80600560008573ffffffffffffffffffffffffffffffffffffffff1673ffffffffffffffffffffffffffffffffffffffff16815260200190815260200160002060008473ffffffffffffffffffffffffffffffffffffffff1673ffffffffffffffffffffffffffffffffffffffff16815260200190815260200160002060006101000a81548160ff0219169083151502179055508173ffffffffffffffffffffffffffffffffffffffff168373ffffffffffffffffffffffffffffffffffffffff167f17307eab39ab6107e8899845ad3d59bd9653f200f220920489ca2b5937696c3183604051611b769190612a52565b60405180910390a3505050565b611b8e8484846117ba565b611b9a848484846120b8565b611bd9576040517f08c379a0000000000000000000000000000000000000000000000000000000008152600401611bd090613dec565b60405180910390fd5b50505050565b6060611bea826115af565b611c29576040517f08c379a0000000000000000000000000000000000000000000000000000000008152600401611c2090613e7e565b60405180910390fd5b6000600a60008481526020019081526020016000208054611c499061335c565b80601f0160208091040260200160405190810160405280929190818152602001828054611c759061335c565b8015611cc25780601f10611c9757610100808354040283529160200191611cc2565b820191906000526020600020905b815481529060010190602001808311611ca557829003601f168201915b505050505090506000611cd3612240565b9050600081511415611ce9578192505050611d2c565b600082511115611d1e578082604051602001611d06929190613e9e565b60405160208183030381529060405292505050611d2c565b611d2784612257565b925050505b919050565b611d3a826115af565b611d79576040517f08c379a0000000000000000000000000000000000000000000000000000000008152600401611d7090613f34565b60405180910390fd5b80600a60008481526020019081526020016000209080519060200190611da09291906128fb565b505050565b6000600d600083815260200190815260200160002060006101000a81548160ff02191690831515021790555050565b600081600001549050919050565b600073ffffffffffffffffffffffffffffffffffffffff168273ffffffffffffffffffffffffffffffffffffffff161415611e52576040517f08c379a0000000000000000000000000000000000000000000000000000000008152600401611e4990613fa0565b60405180910390fd5b611e5b816115af565b15611e9b576040517f08c379a0000000000000000000000000000000000000000000000000000000008152600401611e929061400c565b60405180910390fd5b611ea7600083836120a8565b6001600360008473ffffffffffffffffffffffffffffffffffffffff1673ffffffffffffffffffffffffffffffffffffffff1681526020019081526020016000206000828254611ef79190613cb8565b92505081905550816002600083815260200190815260200160002060006101000a81548173ffffffffffffffffffffffffffffffffffffffff021916908373ffffffffffffffffffffffffffffffffffffffff160217905550808273ffffffffffffffffffffffffffffffffffffffff16600073ffffffffffffffffffffffffffffffffffffffff167fddf252ad1be2c89b69c2b068fc378daa952ba7f163c4a11628f55a4df523b3ef60405160405180910390a45050565b6001816000016000828254019250508190555050565b60007f80ac58cd000000000000000000000000000000000000000000000000000000007bffffffffffffffffffffffffffffffffffffffffffffffffffffffff1916827bffffffffffffffffffffffffffffffffffffffffffffffffffffffff1916148061209157507f5b5e139f000000000000000000000000000000000000000000000000000000007bffffffffffffffffffffffffffffffffffffffffffffffffffffffff1916827bffffffffffffffffffffffffffffffffffffffffffffffffffffffff1916145b806120a157506120a0826122fe565b5b9050919050565b6120b3838383612368565b505050565b60006120d98473ffffffffffffffffffffffffffffffffffffffff1661247c565b15612233578373ffffffffffffffffffffffffffffffffffffffff1663150b7a0261210261161b565b8786866040518563ffffffff1660e01b81526004016121249493929190614081565b6020604051808303816000875af192505050801561216057506040513d601f19601f8201168201806040525081019061215d91906140e2565b60015b6121e3573d8060008114612190576040519150601f19603f3d011682016040523d82523d6000602084013e612195565b606091505b506000815114156121db576040517f08c379a00000000000000000000000000000000000000000000000000000000081526004016121d290613dec565b60405180910390fd5b805181602001fd5b63150b7a0260e01b7bffffffffffffffffffffffffffffffffffffffffffffffffffffffff1916817bffffffffffffffffffffffffffffffffffffffffffffffffffffffff191614915050612238565b600190505b949350505050565b606060405180602001604052806000815250905090565b6060612262826115af565b6122a1576040517f08c379a000000000000000000000000000000000000000000000000000000000815260040161229890614181565b60405180910390fd5b60006122ab612240565b905060008151116122cb57604051806020016040528060008152506122f6565b806122d58461248f565b6040516020016122e6929190613e9e565b6040516020818303038152906040525b915050919050565b60007f01ffc9a7000000000000000000000000000000000000000000000000000000007bffffffffffffffffffffffffffffffffffffffffffffffffffffffff1916827bffffffffffffffffffffffffffffffffffffffffffffffffffffffff1916149050919050565b6123738383836125f0565b600073ffffffffffffffffffffffffffffffffffffffff168373ffffffffffffffffffffffffffffffffffffffff1614156123b6576123b1816125f5565b6123f5565b8173ffffffffffffffffffffffffffffffffffffffff168373ffffffffffffffffffffffffffffffffffffffff16146123f4576123f3838261263e565b5b5b600073ffffffffffffffffffffffffffffffffffffffff168273ffffffffffffffffffffffffffffffffffffffff16141561243857612433816127ab565b612477565b8273ffffffffffffffffffffffffffffffffffffffff168273ffffffffffffffffffffffffffffffffffffffff161461247657612475828261287c565b5b5b505050565b600080823b905060008111915050919050565b606060008214156124d7576040518060400160405280600181526020017f300000000000000000000000000000000000000000000000000000000000000081525090506125eb565b600082905060005b600082146125095780806124f2906137ea565b915050600a8261250291906141d0565b91506124df565b60008167ffffffffffffffff81111561252557612524612c87565b5b6040519080825280601f01601f1916602001820160405280156125575781602001600182028036833780820191505090505b5090505b600085146125e4576001826125709190613c84565b9150600a8561257f9190614201565b603061258b9190613cb8565b60f81b8183815181106125a1576125a061378c565b5b60200101907effffffffffffffffffffffffffffffffffffffffffffffffffffffffffffff1916908160001a905350600a856125dd91906141d0565b945061255b565b8093505050505b919050565b505050565b6008805490506009600083815260200190815260200160002081905550600881908060018154018082558091505060019003906000526020600020016000909190919091505550565b6000600161264b84610ce9565b6126559190613c84565b905060006007600084815260200190815260200160002054905081811461273a576000600660008673ffffffffffffffffffffffffffffffffffffffff1673ffffffffffffffffffffffffffffffffffffffff168152602001908152602001600020600084815260200190815260200160002054905080600660008773ffffffffffffffffffffffffffffffffffffffff1673ffffffffffffffffffffffffffffffffffffffff168152602001908152602001600020600084815260200190815260200160002081905550816007600083815260200190815260200160002081905550505b6007600084815260200190815260200160002060009055600660008573ffffffffffffffffffffffffffffffffffffffff1673ffffffffffffffffffffffffffffffffffffffff16815260200190815260200160002060008381526020019081526020016000206000905550505050565b600060016008805490506127bf9190613c84565b90506000600960008481526020019081526020016000205490506000600883815481106127ef576127ee61378c565b5b9060005260206000200154905080600883815481106128115761281061378c565b5b9060005260206000200181905550816009600083815260200190815260200160002081905550600960008581526020019081526020016000206000905560088054806128605761285f614232565b5b6001900381819060005260206000200160009055905550505050565b600061288783610ce9565b905081600660008573ffffffffffffffffffffffffffffffffffffffff1673ffffffffffffffffffffffffffffffffffffffff168152602001908152602001600020600083815260200190815260200160002081905550806007600084815260200190815260200160002081905550505050565b8280546129079061335c565b90600052602060002090601f0160209004810192826129295760008555612970565b82601f1061294257805160ff1916838001178555612970565b82800160010185558215612970579182015b8281111561296f578251825591602001919060010190612954565b5b50905061297d9190612981565b5090565b5b8082111561299a576000816000905550600101612982565b5090565b6000604051905090565b600080fd5b600080fd5b60007fffffffff0000000000000000000000000000000000000000000000000000000082169050919050565b6129e7816129b2565b81146129f257600080fd5b50565b600081359050612a04816129de565b92915050565b600060208284031215612a2057612a1f6129a8565b5b6000612a2e848285016129f5565b91505092915050565b60008115159050919050565b612a4c81612a37565b82525050565b6000602082019050612a676000830184612a43565b92915050565b600081519050919050565b600082825260208201905092915050565b60005b83811015612aa7578082015181840152602081019050612a8c565b83811115612ab6576000848401525b50505050565b6000601f19601f8301169050919050565b6000612ad882612a6d565b612ae28185612a78565b9350612af2818560208601612a89565b612afb81612abc565b840191505092915050565b60006020820190508181036000830152612b208184612acd565b905092915050565b6000819050919050565b612b3b81612b28565b8114612b4657600080fd5b50565b600081359050612b5881612b32565b92915050565b600060208284031215612b7457612b736129a8565b5b6000612b8284828501612b49565b91505092915050565b600073ffffffffffffffffffffffffffffffffffffffff82169050919050565b6000612bb682612b8b565b9050919050565b612bc681612bab565b82525050565b6000602082019050612be16000830184612bbd565b92915050565b612bf081612bab565b8114612bfb57600080fd5b50565b600081359050612c0d81612be7565b92915050565b60008060408385031215612c2a57612c296129a8565b5b6000612c3885828601612bfe565b9250506020612c4985828601612b49565b9150509250929050565b612c5c81612b28565b82525050565b6000602082019050612c776000830184612c53565b92915050565b600080fd5b600080fd5b7f4e487b7100000000000000000000000000000000000000000000000000000000600052604160045260246000fd5b612cbf82612abc565b810181811067ffffffffffffffff82111715612cde57612cdd612c87565b5b80604052505050565b6000612cf161299e565b9050612cfd8282612cb6565b919050565b600067ffffffffffffffff821115612d1d57612d1c612c87565b5b612d2682612abc565b9050602081019050919050565b82818337600083830152505050565b6000612d55612d5084612d02565b612ce7565b905082815260208101848484011115612d7157612d70612c82565b5b612d7c848285612d33565b509392505050565b600082601f830112612d9957612d98612c7d565b5b8135612da9848260208601612d42565b91505092915050565b600060208284031215612dc857612dc76129a8565b5b600082013567ffffffffffffffff811115612de657612de56129ad565b5b612df284828501612d84565b91505092915050565b600080600060608486031215612e1457612e136129a8565b5b6000612e2286828701612bfe565b9350506020612e3386828701612bfe565b9250506040612e4486828701612b49565b9150509250925092565b600060208284031215612e6457612e636129a8565b5b6000612e7284828501612bfe565b91505092915050565b600081519050919050565b600082825260208201905092915050565b6000819050602082019050919050565b612eb081612b28565b82525050565b6000612ec28383612ea7565b60208301905092915050565b6000602082019050919050565b6000612ee682612e7b565b612ef08185612e86565b9350612efb83612e97565b8060005b83811015612f2c578151612f138882612eb6565b9750612f1e83612ece565b925050600181019050612eff565b5085935050505092915050565b60006020820190508181036000830152612f538184612edb565b905092915050565b600081519050919050565b600082825260208201905092915050565b6000819050602082019050919050565b600082825260208201905092915050565b6000612fa382612a6d565b612fad8185612f87565b9350612fbd818560208601612a89565b612fc681612abc565b840191505092915050565b6000612fdd8383612f98565b905092915050565b6000602082019050919050565b6000612ffd82612f5b565b6130078185612f66565b93508360208202850161301985612f77565b8060005b8581101561305557848403895281516130368582612fd1565b945061304183612fe5565b925060208a0199505060018101905061301d565b50829750879550505050505092915050565b600060208201905081810360008301526130818184612ff2565b905092915050565b61309281612a37565b811461309d57600080fd5b50565b6000813590506130af81613089565b92915050565b600080604083850312156130cc576130cb6129a8565b5b60006130da85828601612bfe565b92505060206130eb858286016130a0565b9150509250929050565b6000806040838503121561310c5761310b6129a8565b5b600083013567ffffffffffffffff81111561312a576131296129ad565b5b61313685828601612d84565b925050602083013567ffffffffffffffff811115613157576131566129ad565b5b61316385828601612d84565b9150509250929050565b600067ffffffffffffffff82111561318857613187612c87565b5b61319182612abc565b9050602081019050919050565b60006131b16131ac8461316d565b612ce7565b9050828152602081018484840111156131cd576131cc612c82565b5b6131d8848285612d33565b509392505050565b600082601f8301126131f5576131f4612c7d565b5b813561320584826020860161319e565b91505092915050565b60008060008060808587031215613228576132276129a8565b5b600061323687828801612bfe565b945050602061324787828801612bfe565b935050604061325887828801612b49565b925050606085013567ffffffffffffffff811115613279576132786129ad565b5b613285878288016131e0565b91505092959194509250565b600080604083850312156132a8576132a76129a8565b5b60006132b685828601612b49565b925050602083013567ffffffffffffffff8111156132d7576132d66129ad565b5b6132e385828601612d84565b9150509250929050565b60008060408385031215613304576133036129a8565b5b600061331285828601612bfe565b925050602061332385828601612bfe565b9150509250929050565b7f4e487b7100000000000000000000000000000000000000000000000000000000600052602260045260246000fd5b6000600282049050600182168061337457607f821691505b602082108114156133885761338761332d565b5b50919050565b7f4552433732313a20617070726f76656420717565727920666f72206e6f6e657860008201527f697374656e7420746f6b656e0000000000000000000000000000000000000000602082015250565b60006133ea602c83612a78565b91506133f58261338e565b604082019050919050565b60006020820190508181036000830152613419816133dd565b9050919050565b7f4552433732313a20617070726f76616c20746f2063757272656e74206f776e6560008201527f7200000000000000000000000000000000000000000000000000000000000000602082015250565b600061347c602183612a78565b915061348782613420565b604082019050919050565b600060208201905081810360008301526134ab8161346f565b9050919050565b7f4552433732313a20617070726f76652063616c6c6572206973206e6f74206f7760008201527f6e6572206e6f7220617070726f76656420666f7220616c6c0000000000000000602082015250565b600061350e603883612a78565b9150613519826134b2565b604082019050919050565b6000602082019050818103600083015261353d81613501565b9050919050565b7f4169724372616674506172742056616c69646174696f6e3a206164647265737360008201527f206e6f7420617574686f72697a65642100000000000000000000000000000000602082015250565b60006135a0603083612a78565b91506135ab82613544565b604082019050919050565b600060208201905081810360008301526135cf81613593565b9050919050565b7f4552433732313a207472616e736665722063616c6c6572206973206e6f74206f60008201527f776e6572206e6f7220617070726f766564000000000000000000000000000000602082015250565b6000613632603183612a78565b915061363d826135d6565b604082019050919050565b6000602082019050818103600083015261366181613625565b9050919050565b7f455243373231456e756d657261626c653a206f776e657220696e646578206f7560008201527f74206f6620626f756e6473000000000000000000000000000000000000000000602082015250565b60006136c4602b83612a78565b91506136cf82613668565b604082019050919050565b600060208201905081810360008301526136f3816136b7565b9050919050565b7f455243373231456e756d657261626c653a20676c6f62616c20696e646578206f60008201527f7574206f6620626f756e64730000000000000000000000000000000000000000602082015250565b6000613756602c83612a78565b9150613761826136fa565b604082019050919050565b6000602082019050818103600083015261378581613749565b9050919050565b7f4e487b7100000000000000000000000000000000000000000000000000000000600052603260045260246000fd5b7f4e487b7100000000000000000000000000000000000000000000000000000000600052601160045260246000fd5b60006137f582612b28565b91507fffffffffffffffffffffffffffffffffffffffffffffffffffffffffffffffff821415613828576138276137bb565b5b600182019050919050565b7f4552433732313a206f776e657220717565727920666f72206e6f6e657869737460008201527f656e7420746f6b656e0000000000000000000000000000000000000000000000602082015250565b600061388f602983612a78565b915061389a82613833565b604082019050919050565b600060208201905081810360008301526138be81613882565b9050919050565b7f4552433732313a2062616c616e636520717565727920666f7220746865207a6560008201527f726f206164647265737300000000000000000000000000000000000000000000602082015250565b6000613921602a83612a78565b915061392c826138c5565b604082019050919050565b6000602082019050818103600083015261395081613914565b9050919050565b600081905092915050565b600061396d82612a6d565b6139778185613957565b9350613987818560208601612a89565b80840191505092915050565b600061399f8284613962565b915081905092915050565b7f4169724372616674506172743a207472616e736665722063616c6c657220697360008201527f206e6f74206f776e6572206e6f7220617070726f766564000000000000000000602082015250565b6000613a06603783612a78565b9150613a11826139aa565b604082019050919050565b60006020820190508181036000830152613a35816139f9565b9050919050565b7f4169724372616674506172743a207061727420696420646f6573206e6f74206560008201527f7869737400000000000000000000000000000000000000000000000000000000602082015250565b6000613a98602483612a78565b9150613aa382613a3c565b604082019050919050565b60006020820190508181036000830152613ac781613a8b565b9050919050565b7f4552433732313a206f70657261746f7220717565727920666f72206e6f6e657860008201527f697374656e7420746f6b656e0000000000000000000000000000000000000000602082015250565b6000613b2a602c83612a78565b9150613b3582613ace565b604082019050919050565b60006020820190508181036000830152613b5981613b1d565b9050919050565b7f4552433732313a207472616e73666572206f6620746f6b656e2074686174206960008201527f73206e6f74206f776e0000000000000000000000000000000000000000000000602082015250565b6000613bbc602983612a78565b9150613bc782613b60565b604082019050919050565b60006020820190508181036000830152613beb81613baf565b9050919050565b7f4552433732313a207472616e7366657220746f20746865207a65726f2061646460008201527f7265737300000000000000000000000000000000000000000000000000000000602082015250565b6000613c4e602483612a78565b9150613c5982613bf2565b604082019050919050565b60006020820190508181036000830152613c7d81613c41565b9050919050565b6000613c8f82612b28565b9150613c9a83612b28565b925082821015613cad57613cac6137bb565b5b828203905092915050565b6000613cc382612b28565b9150613cce83612b28565b9250827fffffffffffffffffffffffffffffffffffffffffffffffffffffffffffffffff03821115613d0357613d026137bb565b5b828201905092915050565b7f4552433732313a20617070726f766520746f2063616c6c657200000000000000600082015250565b6000613d44601983612a78565b9150613d4f82613d0e565b602082019050919050565b60006020820190508181036000830152613d7381613d37565b9050919050565b7f4552433732313a207472616e7366657220746f206e6f6e20455243373231526560008201527f63656976657220696d706c656d656e7465720000000000000000000000000000602082015250565b6000613dd6603283612a78565b9150613de182613d7a565b604082019050919050565b60006020820190508181036000830152613e0581613dc9565b9050919050565b7f45524337323155524953746f726167653a2055524920717565727920666f722060008201527f6e6f6e6578697374656e7420746f6b656e000000000000000000000000000000602082015250565b6000613e68603183612a78565b9150613e7382613e0c565b604082019050919050565b60006020820190508181036000830152613e9781613e5b565b9050919050565b6000613eaa8285613962565b9150613eb68284613962565b91508190509392505050565b7f45524337323155524953746f726167653a2055524920736574206f66206e6f6e60008201527f6578697374656e7420746f6b656e000000000000000000000000000000000000602082015250565b6000613f1e602e83612a78565b9150613f2982613ec2565b604082019050919050565b60006020820190508181036000830152613f4d81613f11565b9050919050565b7f4552433732313a206d696e7420746f20746865207a65726f2061646472657373600082015250565b6000613f8a602083612a78565b9150613f9582613f54565b602082019050919050565b60006020820190508181036000830152613fb981613f7d565b9050919050565b7f4552433732313a20746f6b656e20616c7265616479206d696e74656400000000600082015250565b6000613ff6601c83612a78565b915061400182613fc0565b602082019050919050565b6000602082019050818103600083015261402581613fe9565b9050919050565b600081519050919050565b600082825260208201905092915050565b60006140538261402c565b61405d8185614037565b935061406d818560208601612a89565b61407681612abc565b840191505092915050565b60006080820190506140966000830187612bbd565b6140a36020830186612bbd565b6140b06040830185612c53565b81810360608301526140c28184614048565b905095945050505050565b6000815190506140dc816129de565b92915050565b6000602082840312156140f8576140f76129a8565b5b6000614106848285016140cd565b91505092915050565b7f4552433732314d657461646174613a2055524920717565727920666f72206e6f60008201527f6e6578697374656e7420746f6b656e0000000000000000000000000000000000602082015250565b600061416b602f83612a78565b91506141768261410f565b604082019050919050565b6000602082019050818103600083015261419a8161415e565b9050919050565b7f4e487b7100000000000000000000000000000000000000000000000000000000600052601260045260246000fd5b60006141db82612b28565b91506141e683612b28565b9250826141f6576141f56141a1565b5b828204905092915050565b600061420c82612b28565b915061421783612b28565b925082614227576142266141a1565b5b828206905092915050565b7f4e487b7100000000000000000000000000000000000000000000000000000000600052603160045260246000fdfea2646970667358221220223e4f195f18605ba56e55cae8db54ca7857c25fb639830d9f38a4fad21b554764736f6c634300080b0033",
  "immutableReferences": {},
  "source": "// SPDX-License-Identifier: GPL-3.0\n\npragma solidity ^0.8.0;\n\n// Imports\nimport \"../client/node_modules/@openzeppelin/contracts/token/ERC721/extensions/ERC721URIStorage.sol\";\nimport \"../client/node_modules/@openzeppelin/contracts/token/ERC721/extensions/ERC721Enumerable.sol\";\nimport \"../client/node_modules/@openzeppelin/contracts/utils/Counters.sol\";\n\n// Smart Contract AirCraftPart using ERC721 token standard\ncontract AirCraftPart is ERC721Enumerable, ERC721URIStorage {\n\n  // ========================================\n  // Variables/Mappings:\n  // ========================================\n\n  // Unique Token Identifier using Counters Library\n  using Counters for Counters.Counter;\n  Counters.Counter private tokenId;\n\n  // Authority addresses\n  mapping ( address => bool) internal authorities;\n\n  // Validated flag for partIds\n  mapping ( uint256 => bool) internal isValidated;\n\n  // Password already set flag for address/user\n  mapping ( address => bool) internal passwordSet;\n\n  // KeyList of corresponding address/user\n  mapping ( address => string) internal ownerToKeyList;\n\n  // URI/hash with corresponding key shares\n  mapping ( string => string) internal uriToKeyShare;\n\n  // ========================================\n  // Constructor: Set Name and Symbol of Contract, Initializing authorities\n  // ========================================\n  constructor() ERC721(\"AirCraftPart\", \"PART\") {\n    authorities[0xCD964d99c155369B3E4ae8EF2Aa83EF55bcebA9B] = true;\n    authorities[0xf0Dd951142614Da97AB59e66827477530F7a0a50] = true;\n  }\n\n  // ========================================\n  // Modifier: Allow only authority modifier\n  // ========================================\n  modifier onlyAuth {\n    require(authorities[msg.sender], \"AirCraftPart Validation: address not authorized!\");\n    _;\n  }\n\n  // ========================================\n  // Function: Create a new aircraft part\n  // ========================================\n  function createAirCraftPart(string memory partURI) public {\n\n    // Get current token Id\n    uint256 tokenIdValue = tokenId.current();\n\n    // Create new Token and set Metadata\n    _mint(msg.sender, tokenIdValue);\n    _setTokenURI(tokenIdValue, partURI);\n\n    // Set to unvalidated part\n    unvalidatePart(tokenIdValue);\n\n    // Set Token Id for next aircraft part\n    tokenId.increment();\n  }\n\n  // ========================================\n  // Function: Add a new certificate to an aircraft part\n  // ========================================\n  function updateCertificateList (uint256 partId, string memory partURI) public {\n\n    // Check if requester is authorized\n    require(\n      _isApprovedOrOwner(msg.sender, partId),\n      \"AirCraftPart: transfer caller is not owner nor approved\"\n    );\n\n    // Check if partId exists\n    require(\n      _exists(partId),\n      \"AirCraftPart: part id does not exist\"\n    );\n\n    // Update Certificate Hash List in Metadata\n    _setTokenURI(partId, partURI);\n\n    // Set to unvalidated part\n    unvalidatePart(partId);\n  }\n\n  // ========================================\n  // Function: Return all Certificates for an aircraft part\n  // ========================================\n  function getPartURI(uint256 partId) public view returns (string memory){\n    return tokenURI(partId);\n  }\n\n  // ========================================\n  // Function: Check if aircraft part exists by ID\n  // ========================================\n  function checkPartIdExist(uint256 partId) public view returns (bool){\n    return _exists(partId);\n  }\n\n  // ========================================\n  // Function: Get tokens of owner\n  // ========================================\n  function getTokensOfOwner(address _owner) external view returns( uint256[] memory ){\n\n    // Get amount of tokens owned by address\n    uint256 tokenCount = balanceOf(_owner);\n\n    // Check if address has tokens\n    if (tokenCount == 0) {\n\n      // Return empty array\n      return new uint256[](0);\n\n    } else {\n\n      // List of all tokens owned by address\n      uint256[] memory ownerTokens = new uint256[](tokenCount);\n\n      // Iterate throw all tokens owned by address and add them to the list\n      for (uint256 i = 0; i < tokenCount; i++){\n        ownerTokens[i] = tokenOfOwnerByIndex(_owner, i);\n      }\n\n      return ownerTokens;\n    }\n  }\n\n  // ========================================\n  // Function: Get all token URIs/hashes\n  // ========================================\n  function getAllTokenURIs() external onlyAuth view returns( string[] memory ){\n\n    // Get amount of tokens owned by address\n    uint256 tokenCount =  totalSupply();\n\n    // Check if address has tokens\n    if (tokenCount == 0) {\n\n      // Return empty array\n      return new string[](0);\n\n    } else {\n\n      // List of all tokens\n      string[] memory tokenURIs = new string[](tokenCount);\n\n      // Iterate throw all tokens and add them to the list\n      for (uint256 i = 0; i < tokenCount; i++){\n        uint256 tokenId = tokenByIndex(i);\n\n        // Check if part is validated\n        if( isValidated[tokenId] == false ){\n          tokenURIs[i] = tokenURI(tokenId);\n        }\n      }\n\n      return tokenURIs;\n    }\n  }\n\n  // ============================\n  // Validate an aircraft part\n  // ============================\n  function validatePart(uint256 partId) external onlyAuth {\n    isValidated[partId] = true;\n  }\n\n  // ============================\n  // Unvalidate an aircraft part\n  // ============================\n  function unvalidatePart(uint256 partId) internal {\n    isValidated[partId] = false;\n  }\n\n  // ============================\n  // Get validation status\n  // ============================\n  function getValidation(uint256 partId) external view returns (bool) {\n    return isValidated[partId];\n  }\n\n  // ========================================\n  // Function: Set key shares of authorities with corresponding URI/hash\n  // ========================================\n  function addKeyShares (string memory uri, string memory keyShares) public {\n    uriToKeyShare[uri] = keyShares;\n  }\n\n  // ========================================\n  // Function: Get key shares of authorities by URI/hash\n  // ========================================\n  function getKeyShares (string memory uri) public onlyAuth view returns (string memory) {\n    return uriToKeyShare[uri];\n  }\n\n  // ========================================\n  // Function: Set flag of user/addres that password has been assigned\n  // ========================================\n  function setPassword () public {\n    passwordSet[msg.sender] = true;\n  }\n\n  // ========================================\n  // Function: Get flag of user/addres whether password has been assigned\n  // ========================================\n  function getPassword () public view returns (bool) {\n    return passwordSet[msg.sender];\n  }\n\n  // ========================================\n  // Function: Get flag of user/addres whether password has been assigned\n  // ========================================\n  function getKeyList () public view returns (string memory) {\n    return ownerToKeyList[msg.sender];\n  }\n\n  // ========================================\n  // Function: Update URI/hash of keylist for corresponding user/address\n  // ========================================\n  function updateKeyList (string memory keyListURI) public {\n    ownerToKeyList[msg.sender] = keyListURI;\n  }\n\n  // ============================\n  // Override inherited function _beforeTokenTransfer\n  // ============================\n  function _beforeTokenTransfer(address from, address to, uint256 _tokenId) internal\n  override(ERC721, ERC721Enumerable){\n    super._beforeTokenTransfer(from, to, _tokenId);\n  }\n\n  // ============================\n  // Override inherited function _burn\n  // ============================\n  function _burn(uint256 _tokenId) internal\n  override(ERC721, ERC721URIStorage) {\n    super._burn(_tokenId);\n  }\n\n  // ============================\n  // Override inherited function tokenURI\n  // ============================\n  function tokenURI(uint256 _tokenId) public view\n  override(ERC721, ERC721URIStorage) returns (string memory) {\n    return super.tokenURI(_tokenId);\n  }\n\n  // ============================\n  // Override inherited function supportsInterface\n  // ============================\n  function supportsInterface(bytes4 _interfaceId) public view\n  override(ERC721, ERC721Enumerable) returns (bool){\n    return super.supportsInterface(_interfaceId);\n  }\n}\n",
  "sourcePath": "/Users/elinabeletski/Documents/GitHub/Rapado/dapp_prototype/contracts/AirCraftPart.sol",
  "compiler": {
    "name": "solc",
    "version": "0.8.11+commit.d7f03943.Emscripten.clang"
  },
  "schemaVersion": "3.4.4",
  "updatedAt": "2022-02-04T08:10:11.707Z",
  "networkType": "ethereum",
  "devdoc": {
    "kind": "dev",
    "methods": {
      "approve(address,uint256)": {
        "details": "See {IERC721-approve}."
      },
      "balanceOf(address)": {
        "details": "See {IERC721-balanceOf}."
      },
      "getApproved(uint256)": {
        "details": "See {IERC721-getApproved}."
      },
      "isApprovedForAll(address,address)": {
        "details": "See {IERC721-isApprovedForAll}."
      },
      "name()": {
        "details": "See {IERC721Metadata-name}."
      },
      "ownerOf(uint256)": {
        "details": "See {IERC721-ownerOf}."
      },
      "safeTransferFrom(address,address,uint256)": {
        "details": "See {IERC721-safeTransferFrom}."
      },
      "safeTransferFrom(address,address,uint256,bytes)": {
        "details": "See {IERC721-safeTransferFrom}."
      },
      "setApprovalForAll(address,bool)": {
        "details": "See {IERC721-setApprovalForAll}."
      },
      "symbol()": {
        "details": "See {IERC721Metadata-symbol}."
      },
      "tokenByIndex(uint256)": {
        "details": "See {IERC721Enumerable-tokenByIndex}."
      },
      "tokenOfOwnerByIndex(address,uint256)": {
        "details": "See {IERC721Enumerable-tokenOfOwnerByIndex}."
      },
      "totalSupply()": {
        "details": "See {IERC721Enumerable-totalSupply}."
      },
      "transferFrom(address,address,uint256)": {
        "details": "See {IERC721-transferFrom}."
      }
    },
    "version": 1
  },
  "userdoc": {
    "kind": "user",
    "methods": {},
    "version": 1
  }
}