{
  "contractName": "AirCraftPart",
  "abi": [
    {
      "inputs": [],
      "stateMutability": "nonpayable",
      "type": "constructor"
    },
    {
      "anonymous": false,
      "inputs": [
        {
          "indexed": true,
          "internalType": "address",
          "name": "owner",
          "type": "address"
        },
        {
          "indexed": true,
          "internalType": "address",
          "name": "approved",
          "type": "address"
        },
        {
          "indexed": true,
          "internalType": "uint256",
          "name": "tokenId",
          "type": "uint256"
        }
      ],
      "name": "Approval",
      "type": "event"
    },
    {
      "anonymous": false,
      "inputs": [
        {
          "indexed": true,
          "internalType": "address",
          "name": "owner",
          "type": "address"
        },
        {
          "indexed": true,
          "internalType": "address",
          "name": "operator",
          "type": "address"
        },
        {
          "indexed": false,
          "internalType": "bool",
          "name": "approved",
          "type": "bool"
        }
      ],
      "name": "ApprovalForAll",
      "type": "event"
    },
    {
      "anonymous": false,
      "inputs": [
        {
          "indexed": true,
          "internalType": "address",
          "name": "from",
          "type": "address"
        },
        {
          "indexed": true,
          "internalType": "address",
          "name": "to",
          "type": "address"
        },
        {
          "indexed": true,
          "internalType": "uint256",
          "name": "tokenId",
          "type": "uint256"
        }
      ],
      "name": "Transfer",
      "type": "event"
    },
    {
      "inputs": [
        {
          "internalType": "address",
          "name": "to",
          "type": "address"
        },
        {
          "internalType": "uint256",
          "name": "tokenId",
          "type": "uint256"
        }
      ],
      "name": "approve",
      "outputs": [],
      "stateMutability": "nonpayable",
      "type": "function"
    },
    {
      "inputs": [
        {
          "internalType": "address",
          "name": "owner",
          "type": "address"
        }
      ],
      "name": "balanceOf",
      "outputs": [
        {
          "internalType": "uint256",
          "name": "",
          "type": "uint256"
        }
      ],
      "stateMutability": "view",
      "type": "function",
      "constant": true
    },
    {
      "inputs": [
        {
          "internalType": "uint256",
          "name": "tokenId",
          "type": "uint256"
        }
      ],
      "name": "getApproved",
      "outputs": [
        {
          "internalType": "address",
          "name": "",
          "type": "address"
        }
      ],
      "stateMutability": "view",
      "type": "function",
      "constant": true
    },
    {
      "inputs": [
        {
          "internalType": "address",
          "name": "owner",
          "type": "address"
        },
        {
          "internalType": "address",
          "name": "operator",
          "type": "address"
        }
      ],
      "name": "isApprovedForAll",
      "outputs": [
        {
          "internalType": "bool",
          "name": "",
          "type": "bool"
        }
      ],
      "stateMutability": "view",
      "type": "function",
      "constant": true
    },
    {
      "inputs": [],
      "name": "name",
      "outputs": [
        {
          "internalType": "string",
          "name": "",
          "type": "string"
        }
      ],
      "stateMutability": "view",
      "type": "function",
      "constant": true
    },
    {
      "inputs": [
        {
          "internalType": "uint256",
          "name": "tokenId",
          "type": "uint256"
        }
      ],
      "name": "ownerOf",
      "outputs": [
        {
          "internalType": "address",
          "name": "",
          "type": "address"
        }
      ],
      "stateMutability": "view",
      "type": "function",
      "constant": true
    },
    {
      "inputs": [
        {
          "internalType": "address",
          "name": "from",
          "type": "address"
        },
        {
          "internalType": "address",
          "name": "to",
          "type": "address"
        },
        {
          "internalType": "uint256",
          "name": "tokenId",
          "type": "uint256"
        }
      ],
      "name": "safeTransferFrom",
      "outputs": [],
      "stateMutability": "nonpayable",
      "type": "function"
    },
    {
      "inputs": [
        {
          "internalType": "address",
          "name": "from",
          "type": "address"
        },
        {
          "internalType": "address",
          "name": "to",
          "type": "address"
        },
        {
          "internalType": "uint256",
          "name": "tokenId",
          "type": "uint256"
        },
        {
          "internalType": "bytes",
          "name": "_data",
          "type": "bytes"
        }
      ],
      "name": "safeTransferFrom",
      "outputs": [],
      "stateMutability": "nonpayable",
      "type": "function"
    },
    {
      "inputs": [
        {
          "internalType": "address",
          "name": "operator",
          "type": "address"
        },
        {
          "internalType": "bool",
          "name": "approved",
          "type": "bool"
        }
      ],
      "name": "setApprovalForAll",
      "outputs": [],
      "stateMutability": "nonpayable",
      "type": "function"
    },
    {
      "inputs": [],
      "name": "symbol",
      "outputs": [
        {
          "internalType": "string",
          "name": "",
          "type": "string"
        }
      ],
      "stateMutability": "view",
      "type": "function",
      "constant": true
    },
    {
      "inputs": [
        {
          "internalType": "uint256",
          "name": "index",
          "type": "uint256"
        }
      ],
      "name": "tokenByIndex",
      "outputs": [
        {
          "internalType": "uint256",
          "name": "",
          "type": "uint256"
        }
      ],
      "stateMutability": "view",
      "type": "function",
      "constant": true
    },
    {
      "inputs": [
        {
          "internalType": "address",
          "name": "owner",
          "type": "address"
        },
        {
          "internalType": "uint256",
          "name": "index",
          "type": "uint256"
        }
      ],
      "name": "tokenOfOwnerByIndex",
      "outputs": [
        {
          "internalType": "uint256",
          "name": "",
          "type": "uint256"
        }
      ],
      "stateMutability": "view",
      "type": "function",
      "constant": true
    },
    {
      "inputs": [],
      "name": "totalSupply",
      "outputs": [
        {
          "internalType": "uint256",
          "name": "",
          "type": "uint256"
        }
      ],
      "stateMutability": "view",
      "type": "function",
      "constant": true
    },
    {
      "inputs": [
        {
          "internalType": "address",
          "name": "from",
          "type": "address"
        },
        {
          "internalType": "address",
          "name": "to",
          "type": "address"
        },
        {
          "internalType": "uint256",
          "name": "tokenId",
          "type": "uint256"
        }
      ],
      "name": "transferFrom",
      "outputs": [],
      "stateMutability": "nonpayable",
      "type": "function"
    },
    {
      "inputs": [
        {
          "internalType": "string",
          "name": "partURI",
          "type": "string"
        }
      ],
      "name": "createAirCraftPart",
      "outputs": [],
      "stateMutability": "nonpayable",
      "type": "function"
    },
    {
      "inputs": [
        {
          "internalType": "uint256",
          "name": "partId",
          "type": "uint256"
        },
        {
          "internalType": "string",
          "name": "partURI",
          "type": "string"
        }
      ],
      "name": "updateCertificateList",
      "outputs": [],
      "stateMutability": "nonpayable",
      "type": "function"
    },
    {
      "inputs": [
        {
          "internalType": "uint256",
          "name": "partId",
          "type": "uint256"
        }
      ],
      "name": "getPartURI",
      "outputs": [
        {
          "internalType": "string",
          "name": "",
          "type": "string"
        }
      ],
      "stateMutability": "view",
      "type": "function",
      "constant": true
    },
    {
      "inputs": [
        {
          "internalType": "uint256",
          "name": "partId",
          "type": "uint256"
        }
      ],
      "name": "checkPartIdExist",
      "outputs": [
        {
          "internalType": "bool",
          "name": "",
          "type": "bool"
        }
      ],
      "stateMutability": "view",
      "type": "function",
      "constant": true
    },
    {
      "inputs": [
        {
          "internalType": "address",
          "name": "_owner",
          "type": "address"
        }
      ],
      "name": "getTokensOfOwner",
      "outputs": [
        {
          "internalType": "uint256[]",
          "name": "",
          "type": "uint256[]"
        }
      ],
      "stateMutability": "view",
      "type": "function",
      "constant": true
    },
    {
      "inputs": [],
      "name": "getAllTokenURIs",
      "outputs": [
        {
          "internalType": "string[]",
          "name": "",
          "type": "string[]"
        }
      ],
      "stateMutability": "view",
      "type": "function",
      "constant": true
    },
    {
      "inputs": [
        {
          "internalType": "uint256",
          "name": "partId",
          "type": "uint256"
        }
      ],
      "name": "validatePart",
      "outputs": [],
      "stateMutability": "nonpayable",
      "type": "function"
    },
    {
      "inputs": [
        {
          "internalType": "uint256",
          "name": "partId",
          "type": "uint256"
        }
      ],
      "name": "getValidation",
      "outputs": [
        {
          "internalType": "bool",
          "name": "",
          "type": "bool"
        }
      ],
      "stateMutability": "view",
      "type": "function",
      "constant": true
    },
    {
      "inputs": [
        {
          "internalType": "string",
          "name": "uri",
          "type": "string"
        },
        {
          "internalType": "string",
          "name": "keyShares",
          "type": "string"
        }
      ],
      "name": "addKeyShares",
      "outputs": [],
      "stateMutability": "nonpayable",
      "type": "function"
    },
    {
      "inputs": [
        {
          "internalType": "string",
          "name": "uri",
          "type": "string"
        }
      ],
      "name": "getKeyShares",
      "outputs": [
        {
          "internalType": "string",
          "name": "",
          "type": "string"
        }
      ],
      "stateMutability": "view",
      "type": "function",
      "constant": true
    },
    {
      "inputs": [],
      "name": "setPassword",
      "outputs": [],
      "stateMutability": "nonpayable",
      "type": "function"
    },
    {
      "inputs": [],
      "name": "getPassword",
      "outputs": [
        {
          "internalType": "bool",
          "name": "",
          "type": "bool"
        }
      ],
      "stateMutability": "view",
      "type": "function",
      "constant": true
    },
    {
      "inputs": [],
      "name": "getKeyList",
      "outputs": [
        {
          "internalType": "string",
          "name": "",
          "type": "string"
        }
      ],
      "stateMutability": "view",
      "type": "function",
      "constant": true
    },
    {
      "inputs": [
        {
          "internalType": "string",
          "name": "keyListURI",
          "type": "string"
        }
      ],
      "name": "updateKeyList",
      "outputs": [],
      "stateMutability": "nonpayable",
      "type": "function"
    },
    {
      "inputs": [
        {
          "internalType": "uint256",
          "name": "_tokenId",
          "type": "uint256"
        }
      ],
      "name": "tokenURI",
      "outputs": [
        {
          "internalType": "string",
          "name": "",
          "type": "string"
        }
      ],
      "stateMutability": "view",
      "type": "function",
      "constant": true
    },
    {
      "inputs": [
        {
          "internalType": "bytes4",
          "name": "_interfaceId",
          "type": "bytes4"
        }
      ],
      "name": "supportsInterface",
      "outputs": [
        {
          "internalType": "bool",
          "name": "",
          "type": "bool"
        }
      ],
      "stateMutability": "view",
      "type": "function",
      "constant": true
    }
  ],
  "bytecode": "0x60806040523480156200001157600080fd5b506040518060400160405280600c81526020017f41697243726166745061727400000000000000000000000000000000000000008152506040518060400160405280600481526020017f504152540000000000000000000000000000000000000000000000000000000081525081600090816200008f9190620003fc565b508060019081620000a19190620003fc565b5050506001600c600073cd964d99c155369b3e4ae8ef2aa83ef55bceba9b73ffffffffffffffffffffffffffffffffffffffff1673ffffffffffffffffffffffffffffffffffffffff16815260200190815260200160002060006101000a81548160ff0219169083151502179055506001600c600073f0dd951142614da97ab59e66827477530f7a0a5073ffffffffffffffffffffffffffffffffffffffff1673ffffffffffffffffffffffffffffffffffffffff16815260200190815260200160002060006101000a81548160ff021916908315150217905550620004e3565b600081519050919050565b7f4e487b7100000000000000000000000000000000000000000000000000000000600052604160045260246000fd5b7f4e487b7100000000000000000000000000000000000000000000000000000000600052602260045260246000fd5b600060028204905060018216806200020457607f821691505b6020821081036200021a5762000219620001bc565b5b50919050565b60008190508160005260206000209050919050565b60006020601f8301049050919050565b600082821b905092915050565b600060088302620002847fffffffffffffffffffffffffffffffffffffffffffffffffffffffffffffffff8262000245565b62000290868362000245565b95508019841693508086168417925050509392505050565b6000819050919050565b6000819050919050565b6000620002dd620002d7620002d184620002a8565b620002b2565b620002a8565b9050919050565b6000819050919050565b620002f983620002bc565b620003116200030882620002e4565b84845462000252565b825550505050565b600090565b6200032862000319565b62000335818484620002ee565b505050565b5b818110156200035d57620003516000826200031e565b6001810190506200033b565b5050565b601f821115620003ac57620003768162000220565b620003818462000235565b8101602085101562000391578190505b620003a9620003a08562000235565b8301826200033a565b50505b505050565b600082821c905092915050565b6000620003d160001984600802620003b1565b1980831691505092915050565b6000620003ec8383620003be565b9150826002028217905092915050565b620004078262000182565b67ffffffffffffffff8111156200042357620004226200018d565b5b6200042f8254620001eb565b6200043c82828562000361565b600060209050601f8311600181146200047457600084156200045f578287015190505b6200046b8582620003de565b865550620004db565b601f198416620004848662000220565b60005b82811015620004ae5784890151825560018201915060208501945060208101905062000487565b86831015620004ce5784890151620004ca601f891682620003be565b8355505b6001600288020188555050505b505050505050565b61442280620004f36000396000f3fe608060405234801561001057600080fd5b50600436106101da5760003560e01c80638392ae5c11610104578063b88d4fde116100a2578063e3084e5c11610071578063e3084e5c1461059f578063e985e9c5146105bb578063eab3c92d146105eb578063ff9d4a9714610609576101da565b8063b88d4fde14610505578063c87b56dd14610521578063cc8e239414610551578063ccf3e26e1461056f576101da565b80639d1b38ba116100de5780639d1b38ba14610493578063a22cb465146104c3578063aea89bf4146104df578063b5b87ff9146104e9576101da565b80638392ae5c1461042757806389fde7af1461045757806395d89b4114610475576101da565b806323b872dd1161017c5780634f6ccce71161014b5780634f6ccce7146103675780635de6dc55146103975780636352211e146103c757806370a08231146103f7576101da565b806323b872dd146102cf5780632f745c59146102eb57806341e65f0a1461031b57806342842e0e1461034b576101da565b8063095ea7b3116101b8578063095ea7b31461025d57806318160ddd1461027957806320e3ea47146102975780632362fc0e146102b3576101da565b806301ffc9a7146101df57806306fdde031461020f578063081812fc1461022d575b600080fd5b6101f960048036038101906101f49190612944565b610625565b604051610206919061298c565b60405180910390f35b610217610637565b6040516102249190612a37565b60405180910390f35b61024760048036038101906102429190612a8f565b6106c9565b6040516102549190612afd565b60405180910390f35b61027760048036038101906102729190612b44565b61074e565b005b610281610865565b60405161028e9190612b93565b60405180910390f35b6102b160048036038101906102ac9190612a8f565b610872565b005b6102cd60048036038101906102c89190612ce3565b61092d565b005b6102e960048036038101906102e49190612d2c565b61097d565b005b61030560048036038101906103009190612b44565b6109dd565b6040516103129190612b93565b60405180910390f35b61033560048036038101906103309190612a8f565b610a82565b604051610342919061298c565b60405180910390f35b61036560048036038101906103609190612d2c565b610a94565b005b610381600480360381019061037c9190612a8f565b610ab4565b60405161038e9190612b93565b60405180910390f35b6103b160048036038101906103ac9190612d7f565b610b25565b6040516103be9190612e6a565b60405180910390f35b6103e160048036038101906103dc9190612a8f565b610c2e565b6040516103ee9190612afd565b60405180910390f35b610411600480360381019061040c9190612d7f565b610cdf565b60405161041e9190612b93565b60405180910390f35b610441600480360381019061043c9190612a8f565b610d96565b60405161044e919061298c565b60405180910390f35b61045f610dc0565b60405161046c9190612f98565b60405180910390f35b61047d610f95565b60405161048a9190612a37565b60405180910390f35b6104ad60048036038101906104a89190612ce3565b611027565b6040516104ba9190612a37565b60405180910390f35b6104dd60048036038101906104d89190612fe6565b611163565b005b6104e7611179565b005b61050360048036038101906104fe9190613026565b6111d3565b005b61051f600480360381019061051a919061313f565b611203565b005b61053b60048036038101906105369190612a8f565b611265565b6040516105489190612a37565b60405180910390f35b610559611277565b604051610566919061298c565b60405180910390f35b61058960048036038101906105849190612a8f565b6112cb565b6040516105969190612a37565b60405180910390f35b6105b960048036038101906105b491906131c2565b6112dd565b005b6105d560048036038101906105d0919061321e565b611385565b6040516105e2919061298c565b60405180910390f35b6105f3611419565b6040516106009190612a37565b60405180910390f35b610623600480360381019061061e9190612ce3565b6114e8565b005b600061063082611521565b9050919050565b6060600080546106469061328d565b80601f01602080910402602001604051908101604052809291908181526020018280546106729061328d565b80156106bf5780601f10610694576101008083540402835291602001916106bf565b820191906000526020600020905b8154815290600101906020018083116106a257829003601f168201915b5050505050905090565b60006106d48261159b565b610713576040517f08c379a000000000000000000000000000000000000000000000000000000000815260040161070a90613330565b60405180910390fd5b6004600083815260200190815260200160002060009054906101000a900473ffffffffffffffffffffffffffffffffffffffff169050919050565b600061075982610c2e565b90508073ffffffffffffffffffffffffffffffffffffffff168373ffffffffffffffffffffffffffffffffffffffff16036107c9576040517f08c379a00000000000000000000000000000000000000000000000000000000081526004016107c0906133c2565b60405180910390fd5b8073ffffffffffffffffffffffffffffffffffffffff166107e8611607565b73ffffffffffffffffffffffffffffffffffffffff161480610817575061081681610811611607565b611385565b5b610856576040517f08c379a000000000000000000000000000000000000000000000000000000000815260040161084d90613454565b60405180910390fd5b610860838361160f565b505050565b6000600880549050905090565b600c60003373ffffffffffffffffffffffffffffffffffffffff1673ffffffffffffffffffffffffffffffffffffffff16815260200190815260200160002060009054906101000a900460ff166108fe576040517f08c379a00000000000000000000000000000000000000000000000000000000081526004016108f5906134e6565b60405180910390fd5b6001600d600083815260200190815260200160002060006101000a81548160ff02191690831515021790555050565b80600f60003373ffffffffffffffffffffffffffffffffffffffff1673ffffffffffffffffffffffffffffffffffffffff168152602001908152602001600020908161097991906136b2565b5050565b61098e610988611607565b826116c8565b6109cd576040517f08c379a00000000000000000000000000000000000000000000000000000000081526004016109c4906137f6565b60405180910390fd5b6109d88383836117a6565b505050565b60006109e883610cdf565b8210610a29576040517f08c379a0000000000000000000000000000000000000000000000000000000008152600401610a2090613888565b60405180910390fd5b600660008473ffffffffffffffffffffffffffffffffffffffff1673ffffffffffffffffffffffffffffffffffffffff168152602001908152602001600020600083815260200190815260200160002054905092915050565b6000610a8d8261159b565b9050919050565b610aaf83838360405180602001604052806000815250611203565b505050565b6000610abe610865565b8210610aff576040517f08c379a0000000000000000000000000000000000000000000000000000000008152600401610af69061391a565b60405180910390fd5b60088281548110610b1357610b1261393a565b5b90600052602060002001549050919050565b60606000610b3283610cdf565b905060008103610b8e57600067ffffffffffffffff811115610b5757610b56612bb8565b5b604051908082528060200260200182016040528015610b855781602001602082028036833780820191505090505b50915050610c29565b60008167ffffffffffffffff811115610baa57610ba9612bb8565b5b604051908082528060200260200182016040528015610bd85781602001602082028036833780820191505090505b50905060005b82811015610c2257610bf085826109dd565b828281518110610c0357610c0261393a565b5b6020026020010181815250508080610c1a90613998565b915050610bde565b5080925050505b919050565b6000806002600084815260200190815260200160002060009054906101000a900473ffffffffffffffffffffffffffffffffffffffff169050600073ffffffffffffffffffffffffffffffffffffffff168173ffffffffffffffffffffffffffffffffffffffff1603610cd6576040517f08c379a0000000000000000000000000000000000000000000000000000000008152600401610ccd90613a52565b60405180910390fd5b80915050919050565b60008073ffffffffffffffffffffffffffffffffffffffff168273ffffffffffffffffffffffffffffffffffffffff1603610d4f576040517f08c379a0000000000000000000000000000000000000000000000000000000008152600401610d4690613ae4565b60405180910390fd5b600360008373ffffffffffffffffffffffffffffffffffffffff1673ffffffffffffffffffffffffffffffffffffffff168152602001908152602001600020549050919050565b6000600d600083815260200190815260200160002060009054906101000a900460ff169050919050565b6060600c60003373ffffffffffffffffffffffffffffffffffffffff1673ffffffffffffffffffffffffffffffffffffffff16815260200190815260200160002060009054906101000a900460ff16610e4e576040517f08c379a0000000000000000000000000000000000000000000000000000000008152600401610e45906134e6565b60405180910390fd5b6000610e58610865565b905060008103610eb957600067ffffffffffffffff811115610e7d57610e7c612bb8565b5b604051908082528060200260200182016040528015610eb057816020015b6060815260200190600190039081610e9b5790505b50915050610f92565b60008167ffffffffffffffff811115610ed557610ed4612bb8565b5b604051908082528060200260200182016040528015610f0857816020015b6060815260200190600190039081610ef35790505b50905060005b82811015610f8b576000610f2182610ab4565b905060001515600d600083815260200190815260200160002060009054906101000a900460ff16151503610f7757610f5881611265565b838381518110610f6b57610f6a61393a565b5b60200260200101819052505b508080610f8390613998565b915050610f0e565b5080925050505b90565b606060018054610fa49061328d565b80601f0160208091040260200160405190810160405280929190818152602001828054610fd09061328d565b801561101d5780601f10610ff25761010080835404028352916020019161101d565b820191906000526020600020905b81548152906001019060200180831161100057829003601f168201915b5050505050905090565b6060600c60003373ffffffffffffffffffffffffffffffffffffffff1673ffffffffffffffffffffffffffffffffffffffff16815260200190815260200160002060009054906101000a900460ff166110b5576040517f08c379a00000000000000000000000000000000000000000000000000000000081526004016110ac906134e6565b60405180910390fd5b6010826040516110c59190613b40565b908152602001604051809103902080546110de9061328d565b80601f016020809104026020016040519081016040528092919081815260200182805461110a9061328d565b80156111575780601f1061112c57610100808354040283529160200191611157565b820191906000526020600020905b81548152906001019060200180831161113a57829003601f168201915b50505050509050919050565b61117561116e611607565b8383611a01565b5050565b6001600e60003373ffffffffffffffffffffffffffffffffffffffff1673ffffffffffffffffffffffffffffffffffffffff16815260200190815260200160002060006101000a81548160ff021916908315150217905550565b806010836040516111e49190613b40565b908152602001604051809103902090816111fe91906136b2565b505050565b61121461120e611607565b836116c8565b611253576040517f08c379a000000000000000000000000000000000000000000000000000000000815260040161124a906137f6565b60405180910390fd5b61125f84848484611b6d565b50505050565b606061127082611bc9565b9050919050565b6000600e60003373ffffffffffffffffffffffffffffffffffffffff1673ffffffffffffffffffffffffffffffffffffffff16815260200190815260200160002060009054906101000a900460ff16905090565b60606112d682611265565b9050919050565b6112e733836116c8565b611326576040517f08c379a000000000000000000000000000000000000000000000000000000000815260040161131d90613bc9565b60405180910390fd5b61132f8261159b565b61136e576040517f08c379a000000000000000000000000000000000000000000000000000000000815260040161136590613c5b565b60405180910390fd5b6113788282611d1a565b61138182611d87565b5050565b6000600560008473ffffffffffffffffffffffffffffffffffffffff1673ffffffffffffffffffffffffffffffffffffffff16815260200190815260200160002060008373ffffffffffffffffffffffffffffffffffffffff1673ffffffffffffffffffffffffffffffffffffffff16815260200190815260200160002060009054906101000a900460ff16905092915050565b6060600f60003373ffffffffffffffffffffffffffffffffffffffff1673ffffffffffffffffffffffffffffffffffffffff16815260200190815260200160002080546114659061328d565b80601f01602080910402602001604051908101604052809291908181526020018280546114919061328d565b80156114de5780601f106114b3576101008083540402835291602001916114de565b820191906000526020600020905b8154815290600101906020018083116114c157829003601f168201915b5050505050905090565b60006114f4600b611db6565b90506115003382611dc4565b61150a8183611d1a565b61151381611d87565b61151d600b611f91565b5050565b60007f780e9d63000000000000000000000000000000000000000000000000000000007bffffffffffffffffffffffffffffffffffffffffffffffffffffffff1916827bffffffffffffffffffffffffffffffffffffffffffffffffffffffff19161480611594575061159382611fa7565b5b9050919050565b60008073ffffffffffffffffffffffffffffffffffffffff166002600084815260200190815260200160002060009054906101000a900473ffffffffffffffffffffffffffffffffffffffff1673ffffffffffffffffffffffffffffffffffffffff1614159050919050565b600033905090565b816004600083815260200190815260200160002060006101000a81548173ffffffffffffffffffffffffffffffffffffffff021916908373ffffffffffffffffffffffffffffffffffffffff160217905550808273ffffffffffffffffffffffffffffffffffffffff1661168283610c2e565b73ffffffffffffffffffffffffffffffffffffffff167f8c5be1e5ebec7d5bd14f71427d1e84f3dd0314c0f7b2291e5b200ac8c7c3b92560405160405180910390a45050565b60006116d38261159b565b611712576040517f08c379a000000000000000000000000000000000000000000000000000000000815260040161170990613ced565b60405180910390fd5b600061171d83610c2e565b90508073ffffffffffffffffffffffffffffffffffffffff168473ffffffffffffffffffffffffffffffffffffffff16148061178c57508373ffffffffffffffffffffffffffffffffffffffff16611774846106c9565b73ffffffffffffffffffffffffffffffffffffffff16145b8061179d575061179c8185611385565b5b91505092915050565b8273ffffffffffffffffffffffffffffffffffffffff166117c682610c2e565b73ffffffffffffffffffffffffffffffffffffffff161461181c576040517f08c379a000000000000000000000000000000000000000000000000000000000815260040161181390613d7f565b60405180910390fd5b600073ffffffffffffffffffffffffffffffffffffffff168273ffffffffffffffffffffffffffffffffffffffff160361188b576040517f08c379a000000000000000000000000000000000000000000000000000000000815260040161188290613e11565b60405180910390fd5b611896838383612089565b6118a160008261160f565b6001600360008573ffffffffffffffffffffffffffffffffffffffff1673ffffffffffffffffffffffffffffffffffffffff16815260200190815260200160002060008282546118f19190613e31565b925050819055506001600360008473ffffffffffffffffffffffffffffffffffffffff1673ffffffffffffffffffffffffffffffffffffffff16815260200190815260200160002060008282546119489190613e65565b92505081905550816002600083815260200190815260200160002060006101000a81548173ffffffffffffffffffffffffffffffffffffffff021916908373ffffffffffffffffffffffffffffffffffffffff160217905550808273ffffffffffffffffffffffffffffffffffffffff168473ffffffffffffffffffffffffffffffffffffffff167fddf252ad1be2c89b69c2b068fc378daa952ba7f163c4a11628f55a4df523b3ef60405160405180910390a4505050565b8173ffffffffffffffffffffffffffffffffffffffff168373ffffffffffffffffffffffffffffffffffffffff1603611a6f576040517f08c379a0000000000000000000000000000000000000000000000000000000008152600401611a6690613ee5565b60405180910390fd5b80600560008573ffffffffffffffffffffffffffffffffffffffff1673ffffffffffffffffffffffffffffffffffffffff16815260200190815260200160002060008473ffffffffffffffffffffffffffffffffffffffff1673ffffffffffffffffffffffffffffffffffffffff16815260200190815260200160002060006101000a81548160ff0219169083151502179055508173ffffffffffffffffffffffffffffffffffffffff168373ffffffffffffffffffffffffffffffffffffffff167f17307eab39ab6107e8899845ad3d59bd9653f200f220920489ca2b5937696c3183604051611b60919061298c565b60405180910390a3505050565b611b788484846117a6565b611b8484848484612099565b611bc3576040517f08c379a0000000000000000000000000000000000000000000000000000000008152600401611bba90613f77565b60405180910390fd5b50505050565b6060611bd48261159b565b611c13576040517f08c379a0000000000000000000000000000000000000000000000000000000008152600401611c0a90614009565b60405180910390fd5b6000600a60008481526020019081526020016000208054611c339061328d565b80601f0160208091040260200160405190810160405280929190818152602001828054611c5f9061328d565b8015611cac5780601f10611c8157610100808354040283529160200191611cac565b820191906000526020600020905b815481529060010190602001808311611c8f57829003601f168201915b505050505090506000611cbd612220565b90506000815103611cd2578192505050611d15565b600082511115611d07578082604051602001611cef929190614029565b60405160208183030381529060405292505050611d15565b611d1084612237565b925050505b919050565b611d238261159b565b611d62576040517f08c379a0000000000000000000000000000000000000000000000000000000008152600401611d59906140bf565b60405180910390fd5b80600a60008481526020019081526020016000209081611d8291906136b2565b505050565b6000600d600083815260200190815260200160002060006101000a81548160ff02191690831515021790555050565b600081600001549050919050565b600073ffffffffffffffffffffffffffffffffffffffff168273ffffffffffffffffffffffffffffffffffffffff1603611e33576040517f08c379a0000000000000000000000000000000000000000000000000000000008152600401611e2a9061412b565b60405180910390fd5b611e3c8161159b565b15611e7c576040517f08c379a0000000000000000000000000000000000000000000000000000000008152600401611e7390614197565b60405180910390fd5b611e8860008383612089565b6001600360008473ffffffffffffffffffffffffffffffffffffffff1673ffffffffffffffffffffffffffffffffffffffff1681526020019081526020016000206000828254611ed89190613e65565b92505081905550816002600083815260200190815260200160002060006101000a81548173ffffffffffffffffffffffffffffffffffffffff021916908373ffffffffffffffffffffffffffffffffffffffff160217905550808273ffffffffffffffffffffffffffffffffffffffff16600073ffffffffffffffffffffffffffffffffffffffff167fddf252ad1be2c89b69c2b068fc378daa952ba7f163c4a11628f55a4df523b3ef60405160405180910390a45050565b6001816000016000828254019250508190555050565b60007f80ac58cd000000000000000000000000000000000000000000000000000000007bffffffffffffffffffffffffffffffffffffffffffffffffffffffff1916827bffffffffffffffffffffffffffffffffffffffffffffffffffffffff1916148061207257507f5b5e139f000000000000000000000000000000000000000000000000000000007bffffffffffffffffffffffffffffffffffffffffffffffffffffffff1916827bffffffffffffffffffffffffffffffffffffffffffffffffffffffff1916145b806120825750612081826122de565b5b9050919050565b612094838383612348565b505050565b60006120ba8473ffffffffffffffffffffffffffffffffffffffff1661245a565b15612213578373ffffffffffffffffffffffffffffffffffffffff1663150b7a026120e3611607565b8786866040518563ffffffff1660e01b8152600401612105949392919061420c565b6020604051808303816000875af192505050801561214157506040513d601f19601f8201168201806040525081019061213e919061426d565b60015b6121c3573d8060008114612171576040519150601f19603f3d011682016040523d82523d6000602084013e612176565b606091505b5060008151036121bb576040517f08c379a00000000000000000000000000000000000000000000000000000000081526004016121b290613f77565b60405180910390fd5b805181602001fd5b63150b7a0260e01b7bffffffffffffffffffffffffffffffffffffffffffffffffffffffff1916817bffffffffffffffffffffffffffffffffffffffffffffffffffffffff191614915050612218565b600190505b949350505050565b606060405180602001604052806000815250905090565b60606122428261159b565b612281576040517f08c379a00000000000000000000000000000000000000000000000000000000081526004016122789061430c565b60405180910390fd5b600061228b612220565b905060008151116122ab57604051806020016040528060008152506122d6565b806122b58461246d565b6040516020016122c6929190614029565b6040516020818303038152906040525b915050919050565b60007f01ffc9a7000000000000000000000000000000000000000000000000000000007bffffffffffffffffffffffffffffffffffffffffffffffffffffffff1916827bffffffffffffffffffffffffffffffffffffffffffffffffffffffff1916149050919050565b6123538383836125cd565b600073ffffffffffffffffffffffffffffffffffffffff168373ffffffffffffffffffffffffffffffffffffffff160361239557612390816125d2565b6123d4565b8173ffffffffffffffffffffffffffffffffffffffff168373ffffffffffffffffffffffffffffffffffffffff16146123d3576123d2838261261b565b5b5b600073ffffffffffffffffffffffffffffffffffffffff168273ffffffffffffffffffffffffffffffffffffffff16036124165761241181612788565b612455565b8273ffffffffffffffffffffffffffffffffffffffff168273ffffffffffffffffffffffffffffffffffffffff1614612454576124538282612859565b5b5b505050565b600080823b905060008111915050919050565b6060600082036124b4576040518060400160405280600181526020017f300000000000000000000000000000000000000000000000000000000000000081525090506125c8565b600082905060005b600082146124e65780806124cf90613998565b915050600a826124df919061435b565b91506124bc565b60008167ffffffffffffffff81111561250257612501612bb8565b5b6040519080825280601f01601f1916602001820160405280156125345781602001600182028036833780820191505090505b5090505b600085146125c15760018261254d9190613e31565b9150600a8561255c919061438c565b60306125689190613e65565b60f81b81838151811061257e5761257d61393a565b5b60200101907effffffffffffffffffffffffffffffffffffffffffffffffffffffffffffff1916908160001a905350600a856125ba919061435b565b9450612538565b8093505050505b919050565b505050565b6008805490506009600083815260200190815260200160002081905550600881908060018154018082558091505060019003906000526020600020016000909190919091505550565b6000600161262884610cdf565b6126329190613e31565b9050600060076000848152602001908152602001600020549050818114612717576000600660008673ffffffffffffffffffffffffffffffffffffffff1673ffffffffffffffffffffffffffffffffffffffff168152602001908152602001600020600084815260200190815260200160002054905080600660008773ffffffffffffffffffffffffffffffffffffffff1673ffffffffffffffffffffffffffffffffffffffff168152602001908152602001600020600084815260200190815260200160002081905550816007600083815260200190815260200160002081905550505b6007600084815260200190815260200160002060009055600660008573ffffffffffffffffffffffffffffffffffffffff1673ffffffffffffffffffffffffffffffffffffffff16815260200190815260200160002060008381526020019081526020016000206000905550505050565b6000600160088054905061279c9190613e31565b90506000600960008481526020019081526020016000205490506000600883815481106127cc576127cb61393a565b5b9060005260206000200154905080600883815481106127ee576127ed61393a565b5b90600052602060002001819055508160096000838152602001908152602001600020819055506009600085815260200190815260200160002060009055600880548061283d5761283c6143bd565b5b6001900381819060005260206000200160009055905550505050565b600061286483610cdf565b905081600660008573ffffffffffffffffffffffffffffffffffffffff1673ffffffffffffffffffffffffffffffffffffffff168152602001908152602001600020600083815260200190815260200160002081905550806007600084815260200190815260200160002081905550505050565b6000604051905090565b600080fd5b600080fd5b60007fffffffff0000000000000000000000000000000000000000000000000000000082169050919050565b612921816128ec565b811461292c57600080fd5b50565b60008135905061293e81612918565b92915050565b60006020828403121561295a576129596128e2565b5b60006129688482850161292f565b91505092915050565b60008115159050919050565b61298681612971565b82525050565b60006020820190506129a1600083018461297d565b92915050565b600081519050919050565b600082825260208201905092915050565b60005b838110156129e15780820151818401526020810190506129c6565b60008484015250505050565b6000601f19601f8301169050919050565b6000612a09826129a7565b612a1381856129b2565b9350612a238185602086016129c3565b612a2c816129ed565b840191505092915050565b60006020820190508181036000830152612a5181846129fe565b905092915050565b6000819050919050565b612a6c81612a59565b8114612a7757600080fd5b50565b600081359050612a8981612a63565b92915050565b600060208284031215612aa557612aa46128e2565b5b6000612ab384828501612a7a565b91505092915050565b600073ffffffffffffffffffffffffffffffffffffffff82169050919050565b6000612ae782612abc565b9050919050565b612af781612adc565b82525050565b6000602082019050612b126000830184612aee565b92915050565b612b2181612adc565b8114612b2c57600080fd5b50565b600081359050612b3e81612b18565b92915050565b60008060408385031215612b5b57612b5a6128e2565b5b6000612b6985828601612b2f565b9250506020612b7a85828601612a7a565b9150509250929050565b612b8d81612a59565b82525050565b6000602082019050612ba86000830184612b84565b92915050565b600080fd5b600080fd5b7f4e487b7100000000000000000000000000000000000000000000000000000000600052604160045260246000fd5b612bf0826129ed565b810181811067ffffffffffffffff82111715612c0f57612c0e612bb8565b5b80604052505050565b6000612c226128d8565b9050612c2e8282612be7565b919050565b600067ffffffffffffffff821115612c4e57612c4d612bb8565b5b612c57826129ed565b9050602081019050919050565b82818337600083830152505050565b6000612c86612c8184612c33565b612c18565b905082815260208101848484011115612ca257612ca1612bb3565b5b612cad848285612c64565b509392505050565b600082601f830112612cca57612cc9612bae565b5b8135612cda848260208601612c73565b91505092915050565b600060208284031215612cf957612cf86128e2565b5b600082013567ffffffffffffffff811115612d1757612d166128e7565b5b612d2384828501612cb5565b91505092915050565b600080600060608486031215612d4557612d446128e2565b5b6000612d5386828701612b2f565b9350506020612d6486828701612b2f565b9250506040612d7586828701612a7a565b9150509250925092565b600060208284031215612d9557612d946128e2565b5b6000612da384828501612b2f565b91505092915050565b600081519050919050565b600082825260208201905092915050565b6000819050602082019050919050565b612de181612a59565b82525050565b6000612df38383612dd8565b60208301905092915050565b6000602082019050919050565b6000612e1782612dac565b612e218185612db7565b9350612e2c83612dc8565b8060005b83811015612e5d578151612e448882612de7565b9750612e4f83612dff565b925050600181019050612e30565b5085935050505092915050565b60006020820190508181036000830152612e848184612e0c565b905092915050565b600081519050919050565b600082825260208201905092915050565b6000819050602082019050919050565b600082825260208201905092915050565b6000612ed4826129a7565b612ede8185612eb8565b9350612eee8185602086016129c3565b612ef7816129ed565b840191505092915050565b6000612f0e8383612ec9565b905092915050565b6000602082019050919050565b6000612f2e82612e8c565b612f388185612e97565b935083602082028501612f4a85612ea8565b8060005b85811015612f865784840389528151612f678582612f02565b9450612f7283612f16565b925060208a01995050600181019050612f4e565b50829750879550505050505092915050565b60006020820190508181036000830152612fb28184612f23565b905092915050565b612fc381612971565b8114612fce57600080fd5b50565b600081359050612fe081612fba565b92915050565b60008060408385031215612ffd57612ffc6128e2565b5b600061300b85828601612b2f565b925050602061301c85828601612fd1565b9150509250929050565b6000806040838503121561303d5761303c6128e2565b5b600083013567ffffffffffffffff81111561305b5761305a6128e7565b5b61306785828601612cb5565b925050602083013567ffffffffffffffff811115613088576130876128e7565b5b61309485828601612cb5565b9150509250929050565b600067ffffffffffffffff8211156130b9576130b8612bb8565b5b6130c2826129ed565b9050602081019050919050565b60006130e26130dd8461309e565b612c18565b9050828152602081018484840111156130fe576130fd612bb3565b5b613109848285612c64565b509392505050565b600082601f83011261312657613125612bae565b5b81356131368482602086016130cf565b91505092915050565b60008060008060808587031215613159576131586128e2565b5b600061316787828801612b2f565b945050602061317887828801612b2f565b935050604061318987828801612a7a565b925050606085013567ffffffffffffffff8111156131aa576131a96128e7565b5b6131b687828801613111565b91505092959194509250565b600080604083850312156131d9576131d86128e2565b5b60006131e785828601612a7a565b925050602083013567ffffffffffffffff811115613208576132076128e7565b5b61321485828601612cb5565b9150509250929050565b60008060408385031215613235576132346128e2565b5b600061324385828601612b2f565b925050602061325485828601612b2f565b9150509250929050565b7f4e487b7100000000000000000000000000000000000000000000000000000000600052602260045260246000fd5b600060028204905060018216806132a557607f821691505b6020821081036132b8576132b761325e565b5b50919050565b7f4552433732313a20617070726f76656420717565727920666f72206e6f6e657860008201527f697374656e7420746f6b656e0000000000000000000000000000000000000000602082015250565b600061331a602c836129b2565b9150613325826132be565b604082019050919050565b600060208201905081810360008301526133498161330d565b9050919050565b7f4552433732313a20617070726f76616c20746f2063757272656e74206f776e6560008201527f7200000000000000000000000000000000000000000000000000000000000000602082015250565b60006133ac6021836129b2565b91506133b782613350565b604082019050919050565b600060208201905081810360008301526133db8161339f565b9050919050565b7f4552433732313a20617070726f76652063616c6c6572206973206e6f74206f7760008201527f6e6572206e6f7220617070726f76656420666f7220616c6c0000000000000000602082015250565b600061343e6038836129b2565b9150613449826133e2565b604082019050919050565b6000602082019050818103600083015261346d81613431565b9050919050565b7f4169724372616674506172742056616c69646174696f6e3a206164647265737360008201527f206e6f7420617574686f72697a65642100000000000000000000000000000000602082015250565b60006134d06030836129b2565b91506134db82613474565b604082019050919050565b600060208201905081810360008301526134ff816134c3565b9050919050565b60008190508160005260206000209050919050565b60006020601f8301049050919050565b600082821b905092915050565b6000600883026135687fffffffffffffffffffffffffffffffffffffffffffffffffffffffffffffffff8261352b565b613572868361352b565b95508019841693508086168417925050509392505050565b6000819050919050565b60006135af6135aa6135a584612a59565b61358a565b612a59565b9050919050565b6000819050919050565b6135c983613594565b6135dd6135d5826135b6565b848454613538565b825550505050565b600090565b6135f26135e5565b6135fd8184846135c0565b505050565b5b81811015613621576136166000826135ea565b600181019050613603565b5050565b601f8211156136665761363781613506565b6136408461351b565b8101602085101561364f578190505b61366361365b8561351b565b830182613602565b50505b505050565b600082821c905092915050565b60006136896000198460080261366b565b1980831691505092915050565b60006136a28383613678565b9150826002028217905092915050565b6136bb826129a7565b67ffffffffffffffff8111156136d4576136d3612bb8565b5b6136de825461328d565b6136e9828285613625565b600060209050601f83116001811461371c576000841561370a578287015190505b6137148582613696565b86555061377c565b601f19841661372a86613506565b60005b828110156137525784890151825560018201915060208501945060208101905061372d565b8683101561376f578489015161376b601f891682613678565b8355505b6001600288020188555050505b505050505050565b7f4552433732313a207472616e736665722063616c6c6572206973206e6f74206f60008201527f776e6572206e6f7220617070726f766564000000000000000000000000000000602082015250565b60006137e06031836129b2565b91506137eb82613784565b604082019050919050565b6000602082019050818103600083015261380f816137d3565b9050919050565b7f455243373231456e756d657261626c653a206f776e657220696e646578206f7560008201527f74206f6620626f756e6473000000000000000000000000000000000000000000602082015250565b6000613872602b836129b2565b915061387d82613816565b604082019050919050565b600060208201905081810360008301526138a181613865565b9050919050565b7f455243373231456e756d657261626c653a20676c6f62616c20696e646578206f60008201527f7574206f6620626f756e64730000000000000000000000000000000000000000602082015250565b6000613904602c836129b2565b915061390f826138a8565b604082019050919050565b60006020820190508181036000830152613933816138f7565b9050919050565b7f4e487b7100000000000000000000000000000000000000000000000000000000600052603260045260246000fd5b7f4e487b7100000000000000000000000000000000000000000000000000000000600052601160045260246000fd5b60006139a382612a59565b91507fffffffffffffffffffffffffffffffffffffffffffffffffffffffffffffffff82036139d5576139d4613969565b5b600182019050919050565b7f4552433732313a206f776e657220717565727920666f72206e6f6e657869737460008201527f656e7420746f6b656e0000000000000000000000000000000000000000000000602082015250565b6000613a3c6029836129b2565b9150613a47826139e0565b604082019050919050565b60006020820190508181036000830152613a6b81613a2f565b9050919050565b7f4552433732313a2062616c616e636520717565727920666f7220746865207a6560008201527f726f206164647265737300000000000000000000000000000000000000000000602082015250565b6000613ace602a836129b2565b9150613ad982613a72565b604082019050919050565b60006020820190508181036000830152613afd81613ac1565b9050919050565b600081905092915050565b6000613b1a826129a7565b613b248185613b04565b9350613b348185602086016129c3565b80840191505092915050565b6000613b4c8284613b0f565b915081905092915050565b7f4169724372616674506172743a207472616e736665722063616c6c657220697360008201527f206e6f74206f776e6572206e6f7220617070726f766564000000000000000000602082015250565b6000613bb36037836129b2565b9150613bbe82613b57565b604082019050919050565b60006020820190508181036000830152613be281613ba6565b9050919050565b7f4169724372616674506172743a207061727420696420646f6573206e6f74206560008201527f7869737400000000000000000000000000000000000000000000000000000000602082015250565b6000613c456024836129b2565b9150613c5082613be9565b604082019050919050565b60006020820190508181036000830152613c7481613c38565b9050919050565b7f4552433732313a206f70657261746f7220717565727920666f72206e6f6e657860008201527f697374656e7420746f6b656e0000000000000000000000000000000000000000602082015250565b6000613cd7602c836129b2565b9150613ce282613c7b565b604082019050919050565b60006020820190508181036000830152613d0681613cca565b9050919050565b7f4552433732313a207472616e73666572206f6620746f6b656e2074686174206960008201527f73206e6f74206f776e0000000000000000000000000000000000000000000000602082015250565b6000613d696029836129b2565b9150613d7482613d0d565b604082019050919050565b60006020820190508181036000830152613d9881613d5c565b9050919050565b7f4552433732313a207472616e7366657220746f20746865207a65726f2061646460008201527f7265737300000000000000000000000000000000000000000000000000000000602082015250565b6000613dfb6024836129b2565b9150613e0682613d9f565b604082019050919050565b60006020820190508181036000830152613e2a81613dee565b9050919050565b6000613e3c82612a59565b9150613e4783612a59565b9250828203905081811115613e5f57613e5e613969565b5b92915050565b6000613e7082612a59565b9150613e7b83612a59565b9250828201905080821115613e9357613e92613969565b5b92915050565b7f4552433732313a20617070726f766520746f2063616c6c657200000000000000600082015250565b6000613ecf6019836129b2565b9150613eda82613e99565b602082019050919050565b60006020820190508181036000830152613efe81613ec2565b9050919050565b7f4552433732313a207472616e7366657220746f206e6f6e20455243373231526560008201527f63656976657220696d706c656d656e7465720000000000000000000000000000602082015250565b6000613f616032836129b2565b9150613f6c82613f05565b604082019050919050565b60006020820190508181036000830152613f9081613f54565b9050919050565b7f45524337323155524953746f726167653a2055524920717565727920666f722060008201527f6e6f6e6578697374656e7420746f6b656e000000000000000000000000000000602082015250565b6000613ff36031836129b2565b9150613ffe82613f97565b604082019050919050565b6000602082019050818103600083015261402281613fe6565b9050919050565b60006140358285613b0f565b91506140418284613b0f565b91508190509392505050565b7f45524337323155524953746f726167653a2055524920736574206f66206e6f6e60008201527f6578697374656e7420746f6b656e000000000000000000000000000000000000602082015250565b60006140a9602e836129b2565b91506140b48261404d565b604082019050919050565b600060208201905081810360008301526140d88161409c565b9050919050565b7f4552433732313a206d696e7420746f20746865207a65726f2061646472657373600082015250565b60006141156020836129b2565b9150614120826140df565b602082019050919050565b6000602082019050818103600083015261414481614108565b9050919050565b7f4552433732313a20746f6b656e20616c7265616479206d696e74656400000000600082015250565b6000614181601c836129b2565b915061418c8261414b565b602082019050919050565b600060208201905081810360008301526141b081614174565b9050919050565b600081519050919050565b600082825260208201905092915050565b60006141de826141b7565b6141e881856141c2565b93506141f88185602086016129c3565b614201816129ed565b840191505092915050565b60006080820190506142216000830187612aee565b61422e6020830186612aee565b61423b6040830185612b84565b818103606083015261424d81846141d3565b905095945050505050565b60008151905061426781612918565b92915050565b600060208284031215614283576142826128e2565b5b600061429184828501614258565b91505092915050565b7f4552433732314d657461646174613a2055524920717565727920666f72206e6f60008201527f6e6578697374656e7420746f6b656e0000000000000000000000000000000000602082015250565b60006142f6602f836129b2565b91506143018261429a565b604082019050919050565b60006020820190508181036000830152614325816142e9565b9050919050565b7f4e487b7100000000000000000000000000000000000000000000000000000000600052601260045260246000fd5b600061436682612a59565b915061437183612a59565b9250826143815761438061432c565b5b828204905092915050565b600061439782612a59565b91506143a283612a59565b9250826143b2576143b161432c565b5b828206905092915050565b7f4e487b7100000000000000000000000000000000000000000000000000000000600052603160045260246000fdfea264697066735822122083aa4ac8603ec609fbe7a9541b6c55de024fb1b878e49ba5fb6bd82bfaf5c03764736f6c63430008130033",
  "immutableReferences": {},
  "source": "// SPDX-License-Identifier: GPL-3.0\r\n\r\npragma solidity ^0.8.0;\r\n\r\n// Imports\r\nimport \"../client/node_modules/@openzeppelin/contracts/token/ERC721/extensions/ERC721URIStorage.sol\";\r\nimport \"../client/node_modules/@openzeppelin/contracts/token/ERC721/extensions/ERC721Enumerable.sol\";\r\nimport \"../client/node_modules/@openzeppelin/contracts/utils/Counters.sol\";\r\n\r\n// Smart Contract AirCraftPart using ERC721 token standard\r\ncontract AirCraftPart is ERC721Enumerable, ERC721URIStorage {\r\n\r\n  // ========================================\r\n  // Variables/Mappings:\r\n  // ========================================\r\n\r\n  // Unique Token Identifier using Counters Library\r\n  using Counters for Counters.Counter;\r\n  Counters.Counter private tokenId;\r\n\r\n  // Authority addresses\r\n  mapping ( address => bool) internal authorities;\r\n\r\n  // Validated flag for partIds\r\n  mapping ( uint256 => bool) internal isValidated;\r\n\r\n  // Password already set flag for address/user\r\n  mapping ( address => bool) internal passwordSet;\r\n\r\n  // KeyList of corresponding address/user\r\n  mapping ( address => string) internal ownerToKeyList;\r\n\r\n  // URI/hash with corresponding key shares\r\n  mapping ( string => string) internal uriToKeyShare;\r\n\r\n  // ========================================\r\n  // Constructor: Set Name and Symbol of Contract, Initializing authorities\r\n  // ========================================\r\n  constructor() ERC721(\"AirCraftPart\", \"PART\") {\r\n    authorities[0xCD964d99c155369B3E4ae8EF2Aa83EF55bcebA9B] = true;\r\n    authorities[0xf0Dd951142614Da97AB59e66827477530F7a0a50] = true;\r\n  }\r\n\r\n  // ========================================\r\n  // Modifier: Allow only authority modifier\r\n  // ========================================\r\n  modifier onlyAuth {\r\n    require(authorities[msg.sender], \"AirCraftPart Validation: address not authorized!\");\r\n    _;\r\n  }\r\n\r\n  // ========================================\r\n  // Function: Create a new aircraft part\r\n  // ========================================\r\n  function createAirCraftPart(string memory partURI) public {\r\n\r\n    // Get current token Id\r\n    uint256 tokenIdValue = tokenId.current();\r\n\r\n    // Create new Token and set Metadata\r\n    _mint(msg.sender, tokenIdValue);\r\n    _setTokenURI(tokenIdValue, partURI);\r\n\r\n    // Set to unvalidated part\r\n    unvalidatePart(tokenIdValue);\r\n\r\n    // Set Token Id for next aircraft part\r\n    tokenId.increment();\r\n  }\r\n\r\n  // ========================================\r\n  // Function: Add a new certificate to an aircraft part\r\n  // ========================================\r\n  function updateCertificateList (uint256 partId, string memory partURI) public {\r\n\r\n    // Check if requester is authorized\r\n    require(\r\n      _isApprovedOrOwner(msg.sender, partId),\r\n      \"AirCraftPart: transfer caller is not owner nor approved\"\r\n    );\r\n\r\n    // Check if partId exists\r\n    require(\r\n      _exists(partId),\r\n      \"AirCraftPart: part id does not exist\"\r\n    );\r\n\r\n    // Update Certificate Hash List in Metadata\r\n    _setTokenURI(partId, partURI);\r\n\r\n    // Set to unvalidated part\r\n    unvalidatePart(partId);\r\n  }\r\n\r\n  // ========================================\r\n  // Function: Return all Certificates for an aircraft part\r\n  // ========================================\r\n  function getPartURI(uint256 partId) public view returns (string memory){\r\n    return tokenURI(partId);\r\n  }\r\n\r\n  // ========================================\r\n  // Function: Check if aircraft part exists by ID\r\n  // ========================================\r\n  function checkPartIdExist(uint256 partId) public view returns (bool){\r\n    return _exists(partId);\r\n  }\r\n\r\n  // ========================================\r\n  // Function: Get tokens of owner\r\n  // ========================================\r\n  function getTokensOfOwner(address _owner) external view returns( uint256[] memory ){\r\n\r\n    // Get amount of tokens owned by address\r\n    uint256 tokenCount = balanceOf(_owner);\r\n\r\n    // Check if address has tokens\r\n    if (tokenCount == 0) {\r\n\r\n      // Return empty array\r\n      return new uint256[](0);\r\n\r\n    } else {\r\n\r\n      // List of all tokens owned by address\r\n      uint256[] memory ownerTokens = new uint256[](tokenCount);\r\n\r\n      // Iterate throw all tokens owned by address and add them to the list\r\n      for (uint256 i = 0; i < tokenCount; i++){\r\n        ownerTokens[i] = tokenOfOwnerByIndex(_owner, i);\r\n      }\r\n\r\n      return ownerTokens;\r\n    }\r\n  }\r\n\r\n  // ========================================\r\n  // Function: Get all token URIs/hashes\r\n  // ========================================\r\n  function getAllTokenURIs() external onlyAuth view returns( string[] memory ){\r\n\r\n    // Get amount of tokens owned by address\r\n    uint256 tokenCount =  totalSupply();\r\n\r\n    // Check if address has tokens\r\n    if (tokenCount == 0) {\r\n\r\n      // Return empty array\r\n      return new string[](0);\r\n\r\n    } else {\r\n\r\n      // List of all tokens\r\n      string[] memory tokenURIs = new string[](tokenCount);\r\n\r\n      // Iterate throw all tokens and add them to the list\r\n      for (uint256 i = 0; i < tokenCount; i++){\r\n        uint256 tokenId = tokenByIndex(i);\r\n\r\n        // Check if part is validated\r\n        if( isValidated[tokenId] == false ){\r\n          tokenURIs[i] = tokenURI(tokenId);\r\n        }\r\n      }\r\n\r\n      return tokenURIs;\r\n    }\r\n  }\r\n\r\n  // ============================\r\n  // Validate an aircraft part\r\n  // ============================\r\n  function validatePart(uint256 partId) external onlyAuth {\r\n    isValidated[partId] = true;\r\n  }\r\n\r\n  // ============================\r\n  // Unvalidate an aircraft part\r\n  // ============================\r\n  function unvalidatePart(uint256 partId) internal {\r\n    isValidated[partId] = false;\r\n  }\r\n\r\n  // ============================\r\n  // Get validation status\r\n  // ============================\r\n  function getValidation(uint256 partId) external view returns (bool) {\r\n    return isValidated[partId];\r\n  }\r\n\r\n  // ========================================\r\n  // Function: Set key shares of authorities with corresponding URI/hash\r\n  // ========================================\r\n  function addKeyShares (string memory uri, string memory keyShares) public {\r\n    uriToKeyShare[uri] = keyShares;\r\n  }\r\n\r\n  // ========================================\r\n  // Function: Get key shares of authorities by URI/hash\r\n  // ========================================\r\n  function getKeyShares (string memory uri) public onlyAuth view returns (string memory) {\r\n    return uriToKeyShare[uri];\r\n  }\r\n\r\n  // ========================================\r\n  // Function: Set flag of user/addres that password has been assigned\r\n  // ========================================\r\n  function setPassword () public {\r\n    passwordSet[msg.sender] = true;\r\n  }\r\n\r\n  // ========================================\r\n  // Function: Get flag of user/addres whether password has been assigned\r\n  // ========================================\r\n  function getPassword () public view returns (bool) {\r\n    return passwordSet[msg.sender];\r\n  }\r\n\r\n  // ========================================\r\n  // Function: Get flag of user/addres whether password has been assigned\r\n  // ========================================\r\n  function getKeyList () public view returns (string memory) {\r\n    return ownerToKeyList[msg.sender];\r\n  }\r\n\r\n  // ========================================\r\n  // Function: Update URI/hash of keylist for corresponding user/address\r\n  // ========================================\r\n  function updateKeyList (string memory keyListURI) public {\r\n    ownerToKeyList[msg.sender] = keyListURI;\r\n  }\r\n\r\n  // ============================\r\n  // Override inherited function _beforeTokenTransfer\r\n  // ============================\r\n  function _beforeTokenTransfer(address from, address to, uint256 _tokenId) internal\r\n  override(ERC721, ERC721Enumerable){\r\n    super._beforeTokenTransfer(from, to, _tokenId);\r\n  }\r\n\r\n  // ============================\r\n  // Override inherited function _burn\r\n  // ============================\r\n  function _burn(uint256 _tokenId) internal\r\n  override(ERC721, ERC721URIStorage) {\r\n    super._burn(_tokenId);\r\n  }\r\n\r\n  // ============================\r\n  // Override inherited function tokenURI\r\n  // ============================\r\n  function tokenURI(uint256 _tokenId) public view\r\n  override(ERC721, ERC721URIStorage) returns (string memory) {\r\n    return super.tokenURI(_tokenId);\r\n  }\r\n\r\n  // ============================\r\n  // Override inherited function supportsInterface\r\n  // ============================\r\n  function supportsInterface(bytes4 _interfaceId) public view\r\n  override(ERC721, ERC721Enumerable) returns (bool){\r\n    return super.supportsInterface(_interfaceId);\r\n  }\r\n}\r\n",
  "sourcePath": "C:\\Users\\marc-\\OneDrive\\Desktop\\rapado\\dapp-prototype-rapado-fuberlin\\contracts\\AirCraftPart.sol",
  "compiler": {
    "name": "solc",
    "version": "0.8.19+commit.7dd6d404.Emscripten.clang"
  },
  "schemaVersion": "3.4.4",
  "updatedAt": "2023-05-08T11:35:13.202Z",
  "networkType": "ethereum",
  "devdoc": {
    "events": {
      "Approval(address,address,uint256)": {
        "details": "Emitted when `owner` enables `approved` to manage the `tokenId` token."
      },
      "ApprovalForAll(address,address,bool)": {
        "details": "Emitted when `owner` enables or disables (`approved`) `operator` to manage all of its assets."
      },
      "Transfer(address,address,uint256)": {
        "details": "Emitted when `tokenId` token is transferred from `from` to `to`."
      }
    },
    "kind": "dev",
    "methods": {
      "approve(address,uint256)": {
        "details": "See {IERC721-approve}."
      },
      "balanceOf(address)": {
        "details": "See {IERC721-balanceOf}."
      },
      "getApproved(uint256)": {
        "details": "See {IERC721-getApproved}."
      },
      "isApprovedForAll(address,address)": {
        "details": "See {IERC721-isApprovedForAll}."
      },
      "name()": {
        "details": "See {IERC721Metadata-name}."
      },
      "ownerOf(uint256)": {
        "details": "See {IERC721-ownerOf}."
      },
      "safeTransferFrom(address,address,uint256)": {
        "details": "See {IERC721-safeTransferFrom}."
      },
      "safeTransferFrom(address,address,uint256,bytes)": {
        "details": "See {IERC721-safeTransferFrom}."
      },
      "setApprovalForAll(address,bool)": {
        "details": "See {IERC721-setApprovalForAll}."
      },
      "symbol()": {
        "details": "See {IERC721Metadata-symbol}."
      },
      "tokenByIndex(uint256)": {
        "details": "See {IERC721Enumerable-tokenByIndex}."
      },
      "tokenOfOwnerByIndex(address,uint256)": {
        "details": "See {IERC721Enumerable-tokenOfOwnerByIndex}."
      },
      "totalSupply()": {
        "details": "See {IERC721Enumerable-totalSupply}."
      },
      "transferFrom(address,address,uint256)": {
        "details": "See {IERC721-transferFrom}."
      }
    },
    "version": 1
  },
  "userdoc": {
    "kind": "user",
    "methods": {},
    "version": 1
  }
}