{
  "contractName": "StoreCertificate",
  "abi": [
    {
      "inputs": [],
      "name": "owner",
      "outputs": [
        {
          "internalType": "address",
          "name": "",
          "type": "address"
        }
      ],
      "stateMutability": "view",
      "type": "function",
      "constant": true
    },
    {
      "inputs": [
        {
          "internalType": "string",
          "name": "x",
          "type": "string"
        }
      ],
      "name": "setCertificateHash",
      "outputs": [],
      "stateMutability": "nonpayable",
      "type": "function"
    },
    {
      "inputs": [],
      "name": "getCertificateHash",
      "outputs": [
        {
          "internalType": "string",
          "name": "",
          "type": "string"
        }
      ],
      "stateMutability": "view",
      "type": "function",
      "constant": true
    }
  ],
  "bytecode": "0x608060405234801561001057600080fd5b50610551806100206000396000f3fe608060405234801561001057600080fd5b50600436106100415760003560e01c80638da5cb5b146100465780639e24808014610064578063dc7c104514610082575b600080fd5b61004e61009e565b60405161005b9190610252565b60405180910390f35b61006c6100c2565b6040516100799190610306565b60405180910390f35b61009c60048036038101906100979190610471565b610154565b005b60008054906101000a900473ffffffffffffffffffffffffffffffffffffffff1681565b6060600180546100d1906104e9565b80601f01602080910402602001604051908101604052809291908181526020018280546100fd906104e9565b801561014a5780601f1061011f5761010080835404028352916020019161014a565b820191906000526020600020905b81548152906001019060200180831161012d57829003601f168201915b5050505050905090565b806001908051906020019061016a92919061016e565b5050565b82805461017a906104e9565b90600052602060002090601f01602090048101928261019c57600085556101e3565b82601f106101b557805160ff19168380011785556101e3565b828001600101855582156101e3579182015b828111156101e25782518255916020019190600101906101c7565b5b5090506101f091906101f4565b5090565b5b8082111561020d5760008160009055506001016101f5565b5090565b600073ffffffffffffffffffffffffffffffffffffffff82169050919050565b600061023c82610211565b9050919050565b61024c81610231565b82525050565b60006020820190506102676000830184610243565b92915050565b600081519050919050565b600082825260208201905092915050565b60005b838110156102a757808201518184015260208101905061028c565b838111156102b6576000848401525b50505050565b6000601f19601f8301169050919050565b60006102d88261026d565b6102e28185610278565b93506102f2818560208601610289565b6102fb816102bc565b840191505092915050565b6000602082019050818103600083015261032081846102cd565b905092915050565b6000604051905090565b600080fd5b600080fd5b600080fd5b600080fd5b7f4e487b7100000000000000000000000000000000000000000000000000000000600052604160045260246000fd5b61037e826102bc565b810181811067ffffffffffffffff8211171561039d5761039c610346565b5b80604052505050565b60006103b0610328565b90506103bc8282610375565b919050565b600067ffffffffffffffff8211156103dc576103db610346565b5b6103e5826102bc565b9050602081019050919050565b82818337600083830152505050565b600061041461040f846103c1565b6103a6565b9050828152602081018484840111156104305761042f610341565b5b61043b8482856103f2565b509392505050565b600082601f8301126104585761045761033c565b5b8135610468848260208601610401565b91505092915050565b60006020828403121561048757610486610332565b5b600082013567ffffffffffffffff8111156104a5576104a4610337565b5b6104b184828501610443565b91505092915050565b7f4e487b7100000000000000000000000000000000000000000000000000000000600052602260045260246000fd5b6000600282049050600182168061050157607f821691505b60208210811415610515576105146104ba565b5b5091905056fea2646970667358221220745b064d7692758ceef6ec26cef49de8d13f83e84472103c9cde9c7b2d3965d964736f6c634300080b0033",
  "immutableReferences": {},
  "source": "// SPDX-License-Identifier: GPL-3.0\r\n\r\npragma solidity ^0.8.0;\r\n\r\n// ipfsHash Typ string ndern?!\r\n\r\ncontract StoreCertificate {\r\n\r\n  address public owner;\r\n  string ipfsHash;\r\n\r\n  function setCertificateHash(string memory x) public {\r\n    ipfsHash = x;\r\n  }\r\n\r\n  function getCertificateHash() public view returns (string memory) {\r\n    return ipfsHash;\r\n  }\r\n}\r\n",
  "sourcePath": "C:\\Users\\marc-\\Desktop\\Rapado\\dapp_prototype\\contracts\\StoreCertificate.sol",
  "compiler": {
    "name": "solc",
    "version": "0.8.11+commit.d7f03943.Emscripten.clang"
  },
  "schemaVersion": "3.4.4",
  "updatedAt": "2022-01-21T09:24:34.855Z",
  "networkType": "ethereum",
  "devdoc": {
    "kind": "dev",
    "methods": {},
    "version": 1
  },
  "userdoc": {
    "kind": "user",
    "methods": {},
    "version": 1
  }
}